{
  "contractName": "Ballot",
  "abi": [
    {
      "inputs": [
        {
          "internalType": "uint256",
          "name": "numProposals",
          "type": "uint256"
        }
      ],
      "payable": false,
      "stateMutability": "nonpayable",
      "type": "constructor"
    },
    {
      "constant": false,
      "inputs": [
        {
          "internalType": "address",
          "name": "customer",
          "type": "address"
        },
        {
          "internalType": "bytes32",
          "name": "_fname",
          "type": "bytes32"
        },
        {
          "internalType": "bytes32",
          "name": "_lname",
          "type": "bytes32"
        },
        {
          "internalType": "bytes32",
          "name": "_organization",
          "type": "bytes32"
        }
      ],
      "name": "register",
      "outputs": [],
      "payable": false,
      "stateMutability": "nonpayable",
      "type": "function"
    },
    {
      "constant": false,
      "inputs": [
        {
          "internalType": "uint256",
          "name": "toProposal",
          "type": "uint256"
        }
      ],
      "name": "vote",
      "outputs": [],
      "payable": false,
      "stateMutability": "nonpayable",
      "type": "function"
    },
    {
      "constant": true,
      "inputs": [],
      "name": "reqWinner",
      "outputs": [
        {
          "internalType": "uint256",
          "name": "winningProposal",
          "type": "uint256"
        }
      ],
      "payable": false,
      "stateMutability": "view",
      "type": "function"
    }
  ],
  "bytecode": "0x608060405234801561001057600080fd5b506040516105b43803806105b48339818101604052602081101561003357600080fd5b8101908080519060200190929190505050336000806101000a81548173ffffffffffffffffffffffffffffffffffffffff021916908373ffffffffffffffffffffffffffffffffffffffff1602179055506002600160008060009054906101000a900473ffffffffffffffffffffffffffffffffffffffff1673ffffffffffffffffffffffffffffffffffffffff1673ffffffffffffffffffffffffffffffffffffffff1681526020019081526020016000206000018190555060008090505b8181101561014e576003604051806020016040528060008152509080600181540180825580915050906001820390600052602060002001600090919290919091506000820151816000015550505080806001019150506100f3565b50506104558061015f6000396000f3fe608060405234801561001057600080fd5b50600436106100415760003560e01c80630121b93f14610046578063508b30c914610074578063e304d5dc14610092575b600080fd5b6100726004803603602081101561005c57600080fd5b81019080803590602001909291905050506100f4565b005b61007c610272565b6040518082815260200191505060405180910390f35b6100f2600480360360808110156100a857600080fd5b81019080803573ffffffffffffffffffffffffffffffffffffffff1690602001909291908035906020019092919080359060200190929190803590602001909291905050506102ec565b005b6000600160003373ffffffffffffffffffffffffffffffffffffffff1673ffffffffffffffffffffffffffffffffffffffff16815260200190815260200160002060000154116101ac576040517f08c379a00000000000000000000000000000000000000000000000000000000081526004018080602001828103825260168152602001807f4e6f742061205265676973746572656420566f7465720000000000000000000081525060200191505060405180910390fd5b6000600160003373ffffffffffffffffffffffffffffffffffffffff1673ffffffffffffffffffffffffffffffffffffffff16815260200190815260200160002090508060010160009054906101000a900460ff161561020b57600080fd5b600380549050821061021c57600080fd5b60018160010160006101000a81548160ff02191690831515021790555081816002018190555080600001546003838154811061025457fe5b90600052602060002001600001600082825401925050819055505050565b6000806000905060008090505b6003805490508110156102dc57816003828154811061029a57fe5b906000526020600020016000015411156102cf57600381815481106102bb57fe5b906000526020600020016000015491508092505b808060010191505061027f565b5060038110156102e857fe5b5090565b6000809054906101000a900473ffffffffffffffffffffffffffffffffffffffff1673ffffffffffffffffffffffffffffffffffffffff163373ffffffffffffffffffffffffffffffffffffffff161461034557600080fd5b82600260008673ffffffffffffffffffffffffffffffffffffffff1673ffffffffffffffffffffffffffffffffffffffff1681526020019081526020016000206000018190555081600260008673ffffffffffffffffffffffffffffffffffffffff1673ffffffffffffffffffffffffffffffffffffffff1681526020019081526020016000206001018190555080600260008673ffffffffffffffffffffffffffffffffffffffff1673ffffffffffffffffffffffffffffffffffffffff168152602001908152602001600020600201819055505050505056fea265627a7a7231582083b8ce8738bd7db30412fefde02113f81008308f37f307b6d5993a5dc07d1a8a64736f6c63430005100032",
  "source": "pragma solidity >=0.4.22 <=0.6.0;\ncontract Ballot {\n\n    struct Voter {                     \n        uint weight;\n        bool voted;\n        uint vote;\n    }\n\n    struct Customer {                     \n        bytes32 fname;\n        bytes32 lname;\n        bytes32 organization;\n    }\n\n    struct Proposal {                  \n        uint voteCount;\n    }\n\n    address chairperson;\n    mapping(address => Voter) voters;  \n    mapping(address => Customer) customers;  \n    Proposal[] proposals;\n\n    \n       //modifiers\n   \n    modifier onlyChair() \n     {require(msg.sender == chairperson);\n      _;\n     }\n     \n     modifier validVoter()\n    {\n        require(voters[msg.sender].weight > 0, \"Not a Registered Voter\");\n        _;\n    }\n\n    constructor (uint numProposals) public  {\n        chairperson = msg.sender;\n        voters[chairperson].weight = 2; // weight 2 for testing purposes\n        //proposals.length = numProposals; -- before 0.6.0\n        for (uint prop = 0; prop < numProposals; prop ++)\n            proposals.push(Proposal(0));\n        \n    }\n    \n     \n    function register(address customer, bytes32 _fname, bytes32 _lname, bytes32 _organization) public onlyChair{\n        customers[customer].fname = _fname;\n        customers[customer].lname = _lname;\n        customers[customer].organization = _organization;\n    }\n\n   \n    function vote(uint toProposal) public  validVoter{\n      \n        Voter storage sender = voters[msg.sender];\n        \n        require (!sender.voted); \n        require (toProposal < proposals.length); \n        \n        sender.voted = true;\n        sender.vote = toProposal;   \n        proposals[toProposal].voteCount += sender.weight;\n    }\n\n    function reqWinner() public view returns (uint winningProposal) {\n       \n        uint winningVoteCount = 0;\n        for (uint prop = 0; prop < proposals.length; prop++) \n            if (proposals[prop].voteCount > winningVoteCount) {\n                winningVoteCount = proposals[prop].voteCount;\n                winningProposal = prop;\n            }\n       assert(winningVoteCount>=3);\n    }\n}",
  "sourcePath": "/Users/bhavyasaisurvepalli/Documents/SEM - 1/526 - Blockchain/Ballot-Dapp/ballot-contract/contracts/Ballot.sol",
  "compiler": {
    "name": "solc",
    "version": "0.5.16+commit.9c3226ce.Emscripten.clang"
  },
  "schemaVersion": "3.4.3",
  "updatedAt": "2021-11-12T18:26:23.652Z",
  "networkType": "ethereum",
  "devdoc": {
    "methods": {}
  },
  "userdoc": {
    "methods": {}
  }
}