{
  "contractName": "License",
  "abi": [
    {
      "inputs": [
        {
          "internalType": "uint256",
          "name": "numProposals",
          "type": "uint256"
        }
      ],
      "stateMutability": "nonpayable",
      "type": "constructor"
    },
    {
      "inputs": [
        {
          "internalType": "address",
          "name": "customer",
          "type": "address"
        },
        {
          "internalType": "bytes32",
          "name": "_fname",
          "type": "bytes32"
        },
        {
          "internalType": "bytes32",
          "name": "_lname",
          "type": "bytes32"
        },
        {
          "internalType": "bytes32",
          "name": "_organization",
          "type": "bytes32"
        }
      ],
      "name": "register",
      "outputs": [],
      "stateMutability": "nonpayable",
      "type": "function"
    },
    {
      "inputs": [
        {
          "internalType": "uint256",
          "name": "toProposal",
          "type": "uint256"
        }
      ],
      "name": "vote",
      "outputs": [],
      "stateMutability": "nonpayable",
      "type": "function"
    },
    {
      "inputs": [],
      "name": "reqWinner",
      "outputs": [
        {
          "internalType": "uint256",
          "name": "winningProposal",
          "type": "uint256"
        }
      ],
      "stateMutability": "view",
      "type": "function",
      "constant": true
    }
  ],
  "bytecode": "0x608060405234801561001057600080fd5b5060405161097238038061097283398181016040528101906100329190610158565b336000806101000a81548173ffffffffffffffffffffffffffffffffffffffff021916908373ffffffffffffffffffffffffffffffffffffffff1602179055506002600160008060009054906101000a900473ffffffffffffffffffffffffffffffffffffffff1673ffffffffffffffffffffffffffffffffffffffff1673ffffffffffffffffffffffffffffffffffffffff1681526020019081526020016000206000018190555060005b8181101561013c576003604051806020016040528060008152509080600181540180825580915050600190039060005260206000200160009091909190915060008201518160000155505080806101349061018b565b9150506100de565b505061021a565b60008151905061015281610203565b92915050565b60006020828403121561016a57600080fd5b600061017884828501610143565b91505092915050565b6000819050919050565b600061019682610181565b91507fffffffffffffffffffffffffffffffffffffffffffffffffffffffffffffffff8214156101c9576101c86101d4565b5b600182019050919050565b7f4e487b7100000000000000000000000000000000000000000000000000000000600052601160045260246000fd5b61020c81610181565b811461021757600080fd5b50565b610749806102296000396000f3fe608060405234801561001057600080fd5b50600436106100415760003560e01c80630121b93f14610046578063508b30c914610062578063e304d5dc14610080575b600080fd5b610060600480360381019061005b91906104f6565b61009c565b005b61006a61021d565b604051610077919061058e565b60405180910390f35b61009a60048036038101906100959190610493565b610321565b005b6000600160003373ffffffffffffffffffffffffffffffffffffffff1673ffffffffffffffffffffffffffffffffffffffff1681526020019081526020016000206000015411610121576040517f08c379a00000000000000000000000000000000000000000000000000000000081526004016101189061056e565b60405180910390fd5b6000600160003373ffffffffffffffffffffffffffffffffffffffff1673ffffffffffffffffffffffffffffffffffffffff16815260200190815260200160002090508060010160009054906101000a900460ff161561018057600080fd5b600380549050821061019157600080fd5b60018160010160006101000a81548160ff0219169083151502179055508181600201819055508060000154600383815481106101f6577f4e487b7100000000000000000000000000000000000000000000000000000000600052603260045260246000fd5b90600052602060002001600001600082825461021291906105ba565b925050819055505050565b6000806000905060005b6003805490508110156102e457816003828154811061026f577f4e487b7100000000000000000000000000000000000000000000000000000000600052603260045260246000fd5b906000526020600020016000015411156102d157600381815481106102bd577f4e487b7100000000000000000000000000000000000000000000000000000000600052603260045260246000fd5b906000526020600020016000015491508092505b80806102dc90610656565b915050610227565b50600381101561031d577f4e487b7100000000000000000000000000000000000000000000000000000000600052600160045260246000fd5b5090565b60008054906101000a900473ffffffffffffffffffffffffffffffffffffffff1673ffffffffffffffffffffffffffffffffffffffff163373ffffffffffffffffffffffffffffffffffffffff161461037957600080fd5b82600260008673ffffffffffffffffffffffffffffffffffffffff1673ffffffffffffffffffffffffffffffffffffffff1681526020019081526020016000206000018190555081600260008673ffffffffffffffffffffffffffffffffffffffff1673ffffffffffffffffffffffffffffffffffffffff1681526020019081526020016000206001018190555080600260008673ffffffffffffffffffffffffffffffffffffffff1673ffffffffffffffffffffffffffffffffffffffff1681526020019081526020016000206002018190555050505050565b600081359050610463816106ce565b92915050565b600081359050610478816106e5565b92915050565b60008135905061048d816106fc565b92915050565b600080600080608085870312156104a957600080fd5b60006104b787828801610454565b94505060206104c887828801610469565b93505060406104d987828801610469565b92505060606104ea87828801610469565b91505092959194509250565b60006020828403121561050857600080fd5b60006105168482850161047e565b91505092915050565b600061052c6016836105a9565b91507f4e6f742061205265676973746572656420566f746572000000000000000000006000830152602082019050919050565b6105688161064c565b82525050565b600060208201905081810360008301526105878161051f565b9050919050565b60006020820190506105a3600083018461055f565b92915050565b600082825260208201905092915050565b60006105c58261064c565b91506105d08361064c565b9250827fffffffffffffffffffffffffffffffffffffffffffffffffffffffffffffffff038211156106055761060461069f565b5b828201905092915050565b600061061b8261062c565b9050919050565b6000819050919050565b600073ffffffffffffffffffffffffffffffffffffffff82169050919050565b6000819050919050565b60006106618261064c565b91507fffffffffffffffffffffffffffffffffffffffffffffffffffffffffffffffff8214156106945761069361069f565b5b600182019050919050565b7f4e487b7100000000000000000000000000000000000000000000000000000000600052601160045260246000fd5b6106d781610610565b81146106e257600080fd5b50565b6106ee81610622565b81146106f957600080fd5b50565b6107058161064c565b811461071057600080fd5b5056fea2646970667358221220e818f76e1eae21d65f8c4900f91d14829ca8304340bf86e09d279347d67975d864736f6c63430008000033",
  "immutableReferences": {},
  "source": "pragma solidity >=0.5.16;\ncontract License {\n\n    struct Voter {                     \n        uint weight;\n        bool voted;\n        uint vote;\n    }\n\n    struct Customer {                     \n        bytes32 fname;\n        bytes32 lname;\n        bytes32 organization;\n    }\n\n    struct Proposal {                  \n        uint voteCount;\n    }\n\n    address chairperson;\n    mapping(address => Voter) voters;  \n    mapping(address => Customer) customers;  \n    Proposal[] proposals;\n\n    \n       //modifiers\n   \n    modifier onlyChair() \n     {require(msg.sender == chairperson);\n      _;\n     }\n     \n     modifier validVoter()\n    {\n        require(voters[msg.sender].weight > 0, \"Not a Registered Voter\");\n        _;\n    }\n\n    constructor (uint numProposals) public  {\n        chairperson = msg.sender;\n        voters[chairperson].weight = 2; // weight 2 for testing purposes\n        //proposals.length = numProposals; -- before 0.6.0\n        for (uint prop = 0; prop < numProposals; prop ++)\n            proposals.push(Proposal(0));\n        \n    }\n    \n     \n    function register(address customer, bytes32 _fname, bytes32 _lname, bytes32 _organization) public onlyChair{\n        customers[customer].fname = _fname;\n        customers[customer].lname = _lname;\n        customers[customer].organization = _organization;\n    }\n\n   \n    function vote(uint toProposal) public  validVoter{\n      \n        Voter storage sender = voters[msg.sender];\n        \n        require (!sender.voted); \n        require (toProposal < proposals.length); \n        \n        sender.voted = true;\n        sender.vote = toProposal;   \n        proposals[toProposal].voteCount += sender.weight;\n    }\n\n    function reqWinner() public view returns (uint winningProposal) {\n       \n        uint winningVoteCount = 0;\n        for (uint prop = 0; prop < proposals.length; prop++) \n            if (proposals[prop].voteCount > winningVoteCount) {\n                winningVoteCount = proposals[prop].voteCount;\n                winningProposal = prop;\n            }\n       assert(winningVoteCount>=3);\n    }\n}",
  "sourcePath": "/Users/bhavyasaisurvepalli/Documents/SEM - 1/526 - Blockchain/SLS/Project /License-Dapp/license-contract/contracts/License.sol",
  "compiler": {
    "name": "solc",
    "version": "0.8.0+commit.c7dfd78e.Emscripten.clang"
  },
  "schemaVersion": "3.4.3",
  "updatedAt": "2021-11-16T04:09:44.857Z",
  "networkType": "ethereum",
  "devdoc": {
    "kind": "dev",
    "methods": {},
    "version": 1
  },
  "userdoc": {
    "kind": "user",
    "methods": {},
    "version": 1
  }
}