{
  "contractName": "SoftwareLicensingSystem",
  "abi": [
    {
      "inputs": [
        {
          "internalType": "string",
          "name": "name_",
          "type": "string"
        },
        {
          "internalType": "string",
          "name": "symbol_",
          "type": "string"
        },
        {
          "internalType": "uint8",
          "name": "decimals_",
          "type": "uint8"
        }
      ],
      "stateMutability": "nonpayable",
      "type": "constructor"
    },
    {
      "anonymous": false,
      "inputs": [
        {
          "indexed": true,
          "internalType": "address",
          "name": "owner",
          "type": "address"
        },
        {
          "indexed": true,
          "internalType": "address",
          "name": "spender",
          "type": "address"
        },
        {
          "indexed": false,
          "internalType": "uint256",
          "name": "value",
          "type": "uint256"
        }
      ],
      "name": "Approval",
      "type": "event"
    },
    {
      "anonymous": false,
      "inputs": [
        {
          "indexed": true,
          "internalType": "address",
          "name": "from",
          "type": "address"
        },
        {
          "indexed": true,
          "internalType": "address",
          "name": "to",
          "type": "address"
        },
        {
          "indexed": false,
          "internalType": "uint256",
          "name": "value",
          "type": "uint256"
        }
      ],
      "name": "Transfer",
      "type": "event"
    },
    {
      "inputs": [
        {
          "internalType": "uint256",
          "name": "",
          "type": "uint256"
        }
      ],
      "name": "customerAddresses",
      "outputs": [
        {
          "internalType": "address",
          "name": "",
          "type": "address"
        }
      ],
      "stateMutability": "view",
      "type": "function",
      "constant": true
    },
    {
      "inputs": [],
      "name": "decimals",
      "outputs": [
        {
          "internalType": "uint8",
          "name": "",
          "type": "uint8"
        }
      ],
      "stateMutability": "view",
      "type": "function",
      "constant": true
    },
    {
      "inputs": [],
      "name": "totalSupply",
      "outputs": [
        {
          "internalType": "uint256",
          "name": "",
          "type": "uint256"
        }
      ],
      "stateMutability": "view",
      "type": "function",
      "constant": true
    },
    {
      "inputs": [
        {
          "internalType": "address",
          "name": "account",
          "type": "address"
        }
      ],
      "name": "balanceOf",
      "outputs": [
        {
          "internalType": "uint256",
          "name": "",
          "type": "uint256"
        }
      ],
      "stateMutability": "view",
      "type": "function",
      "constant": true
    },
    {
      "inputs": [
        {
          "internalType": "address",
          "name": "recipient",
          "type": "address"
        },
        {
          "internalType": "uint256",
          "name": "amount",
          "type": "uint256"
        }
      ],
      "name": "transfer",
      "outputs": [
        {
          "internalType": "bool",
          "name": "",
          "type": "bool"
        }
      ],
      "stateMutability": "nonpayable",
      "type": "function"
    },
    {
      "inputs": [
        {
          "internalType": "address",
          "name": "owner",
          "type": "address"
        },
        {
          "internalType": "address",
          "name": "spender",
          "type": "address"
        }
      ],
      "name": "allowance",
      "outputs": [
        {
          "internalType": "uint256",
          "name": "",
          "type": "uint256"
        }
      ],
      "stateMutability": "view",
      "type": "function",
      "constant": true
    },
    {
      "inputs": [
        {
          "internalType": "address",
          "name": "spender",
          "type": "address"
        },
        {
          "internalType": "uint256",
          "name": "amount",
          "type": "uint256"
        }
      ],
      "name": "approve",
      "outputs": [
        {
          "internalType": "bool",
          "name": "",
          "type": "bool"
        }
      ],
      "stateMutability": "nonpayable",
      "type": "function"
    },
    {
      "inputs": [
        {
          "internalType": "address",
          "name": "sender",
          "type": "address"
        },
        {
          "internalType": "address",
          "name": "recipient",
          "type": "address"
        },
        {
          "internalType": "uint256",
          "name": "amount",
          "type": "uint256"
        }
      ],
      "name": "transferFrom",
      "outputs": [
        {
          "internalType": "bool",
          "name": "",
          "type": "bool"
        }
      ],
      "stateMutability": "nonpayable",
      "type": "function"
    },
    {
      "inputs": [
        {
          "internalType": "address",
          "name": "_customer",
          "type": "address"
        },
        {
          "internalType": "string",
          "name": "_fname",
          "type": "string"
        },
        {
          "internalType": "string",
          "name": "_lname",
          "type": "string"
        },
        {
          "internalType": "string",
          "name": "_organization",
          "type": "string"
        }
      ],
      "name": "registerCustomer",
      "outputs": [],
      "stateMutability": "nonpayable",
      "type": "function"
    },
    {
      "inputs": [
        {
          "internalType": "address",
          "name": "_address",
          "type": "address"
        }
      ],
      "name": "getCustomer",
      "outputs": [
        {
          "internalType": "string",
          "name": "",
          "type": "string"
        },
        {
          "internalType": "string",
          "name": "",
          "type": "string"
        },
        {
          "internalType": "string",
          "name": "",
          "type": "string"
        }
      ],
      "stateMutability": "view",
      "type": "function",
      "constant": true
    },
    {
      "inputs": [
        {
          "internalType": "address",
          "name": "_customer",
          "type": "address"
        },
        {
          "internalType": "uint256",
          "name": "_id",
          "type": "uint256"
        }
      ],
      "name": "transferOwner",
      "outputs": [],
      "stateMutability": "nonpayable",
      "type": "function"
    }
  ],
  "bytecode": "0x6080604052621e84806002553480156200001857600080fd5b5060405162001a7138038062001a7183398181016040528101906200003e9190620001cd565b82600390805190602001906200005692919062000094565b5081600490805190602001906200006f92919062000094565b5080600560006101000a81548160ff021916908360ff160217905550505050620003ad565b828054620000a290620002ff565b90600052602060002090601f016020900481019282620000c6576000855562000112565b82601f10620000e157805160ff191683800117855562000112565b8280016001018555821562000112579182015b8281111562000111578251825591602001919060010190620000f4565b5b50905062000121919062000125565b5090565b5b808211156200014057600081600090555060010162000126565b5090565b60006200015b620001558462000289565b62000255565b9050828152602081018484840111156200017457600080fd5b62000181848285620002c9565b509392505050565b600082601f8301126200019b57600080fd5b8151620001ad84826020860162000144565b91505092915050565b600081519050620001c78162000393565b92915050565b600080600060608486031215620001e357600080fd5b600084015167ffffffffffffffff811115620001fe57600080fd5b6200020c8682870162000189565b935050602084015167ffffffffffffffff8111156200022a57600080fd5b620002388682870162000189565b92505060406200024b86828701620001b6565b9150509250925092565b6000604051905081810181811067ffffffffffffffff821117156200027f576200027e62000364565b5b8060405250919050565b600067ffffffffffffffff821115620002a757620002a662000364565b5b601f19601f8301169050602081019050919050565b600060ff82169050919050565b60005b83811015620002e9578082015181840152602081019050620002cc565b83811115620002f9576000848401525b50505050565b600060028204905060018216806200031857607f821691505b602082108114156200032f576200032e62000335565b5b50919050565b7f4e487b7100000000000000000000000000000000000000000000000000000000600052602260045260246000fd5b7f4e487b7100000000000000000000000000000000000000000000000000000000600052604160045260246000fd5b6200039e81620002bc565b8114620003aa57600080fd5b50565b6116b480620003bd6000396000f3fe608060405234801561001057600080fd5b50600436106100a95760003560e01c806370a082311161007157806370a082311461017a578063a9059cbb146101aa578063ae603110146101da578063cb949e51146101f6578063dd62ed3e14610228578063e53c454814610258576100a9565b8063095ea7b3146100ae57806318160ddd146100de57806323b872dd146100fc578063313ce5671461012c5780633a47c4601461014a575b600080fd5b6100c860048036038101906100c39190610f60565b610274565b6040516100d591906112b9565b60405180910390f35b6100e661028b565b6040516100f391906113e0565b60405180910390f35b61011660048036038101906101119190610e66565b610295565b60405161012391906112b9565b60405180910390f35b61013461037f565b60405161014191906113fb565b60405180910390f35b610164600480360381019061015f9190610f9c565b610392565b604051610171919061129e565b60405180910390f35b610194600480360381019061018f9190610e01565b6103d1565b6040516101a191906113e0565b60405180910390f35b6101c460048036038101906101bf9190610f60565b610419565b6040516101d191906112b9565b60405180910390f35b6101f460048036038101906101ef9190610eb5565b610430565b005b610210600480360381019061020b9190610e01565b61053b565b60405161021f939291906112d4565b60405180910390f35b610242600480360381019061023d9190610e2a565b6107b7565b60405161024f91906113e0565b60405180910390f35b610272600480360381019061026d9190610f60565b61083e565b005b6000610281338484610897565b6001905092915050565b6000600254905090565b60006102a2848484610a62565b6000600160008673ffffffffffffffffffffffffffffffffffffffff1673ffffffffffffffffffffffffffffffffffffffff16815260200190815260200160002060003373ffffffffffffffffffffffffffffffffffffffff1673ffffffffffffffffffffffffffffffffffffffff16815260200190815260200160002054905082811015610366576040517f08c379a000000000000000000000000000000000000000000000000000000000815260040161035d90611380565b60405180910390fd5b6103738533858403610897565b60019150509392505050565b600560009054906101000a900460ff1681565b600781815481106103a257600080fd5b906000526020600020016000915054906101000a900473ffffffffffffffffffffffffffffffffffffffff1681565b60008060008373ffffffffffffffffffffffffffffffffffffffff1673ffffffffffffffffffffffffffffffffffffffff168152602001908152602001600020549050919050565b6000610426338484610a62565b6001905092915050565b82600660008673ffffffffffffffffffffffffffffffffffffffff1673ffffffffffffffffffffffffffffffffffffffff1681526020019081526020016000206000019080519060200190610486929190610ccc565b5081600660008673ffffffffffffffffffffffffffffffffffffffff1673ffffffffffffffffffffffffffffffffffffffff16815260200190815260200160002060010190805190602001906104dd929190610ccc565b5080600660008673ffffffffffffffffffffffffffffffffffffffff1673ffffffffffffffffffffffffffffffffffffffff1681526020019081526020016000206002019080519060200190610534929190610ccc565b5050505050565b6060806060600660008573ffffffffffffffffffffffffffffffffffffffff1673ffffffffffffffffffffffffffffffffffffffff168152602001908152602001600020600001600660008673ffffffffffffffffffffffffffffffffffffffff1673ffffffffffffffffffffffffffffffffffffffff168152602001908152602001600020600101600660008773ffffffffffffffffffffffffffffffffffffffff1673ffffffffffffffffffffffffffffffffffffffff16815260200190815260200160002060020182805461061290611580565b80601f016020809104026020016040519081016040528092919081815260200182805461063e90611580565b801561068b5780601f106106605761010080835404028352916020019161068b565b820191906000526020600020905b81548152906001019060200180831161066e57829003601f168201915b5050505050925081805461069e90611580565b80601f01602080910402602001604051908101604052809291908181526020018280546106ca90611580565b80156107175780601f106106ec57610100808354040283529160200191610717565b820191906000526020600020905b8154815290600101906020018083116106fa57829003601f168201915b5050505050915080805461072a90611580565b80601f016020809104026020016040519081016040528092919081815260200182805461075690611580565b80156107a35780601f10610778576101008083540402835291602001916107a3565b820191906000526020600020905b81548152906001019060200180831161078657829003601f168201915b505050505090509250925092509193909250565b6000600160008473ffffffffffffffffffffffffffffffffffffffff1673ffffffffffffffffffffffffffffffffffffffff16815260200190815260200160002060008373ffffffffffffffffffffffffffffffffffffffff1673ffffffffffffffffffffffffffffffffffffffff16815260200190815260200160002054905092915050565b816008600083815260200190815260200160002060020160006101000a81548173ffffffffffffffffffffffffffffffffffffffff021916908373ffffffffffffffffffffffffffffffffffffffff1602179055505050565b600073ffffffffffffffffffffffffffffffffffffffff168373ffffffffffffffffffffffffffffffffffffffff161415610907576040517f08c379a00000000000000000000000000000000000000000000000000000000081526004016108fe906113c0565b60405180910390fd5b600073ffffffffffffffffffffffffffffffffffffffff168273ffffffffffffffffffffffffffffffffffffffff161415610977576040517f08c379a000000000000000000000000000000000000000000000000000000000815260040161096e90611340565b60405180910390fd5b80600160008573ffffffffffffffffffffffffffffffffffffffff1673ffffffffffffffffffffffffffffffffffffffff16815260200190815260200160002060008473ffffffffffffffffffffffffffffffffffffffff1673ffffffffffffffffffffffffffffffffffffffff168152602001908152602001600020819055508173ffffffffffffffffffffffffffffffffffffffff168373ffffffffffffffffffffffffffffffffffffffff167f8c5be1e5ebec7d5bd14f71427d1e84f3dd0314c0f7b2291e5b200ac8c7c3b92583604051610a5591906113e0565b60405180910390a3505050565b600073ffffffffffffffffffffffffffffffffffffffff168373ffffffffffffffffffffffffffffffffffffffff161415610ad2576040517f08c379a0000000000000000000000000000000000000000000000000000000008152600401610ac9906113a0565b60405180910390fd5b600073ffffffffffffffffffffffffffffffffffffffff168273ffffffffffffffffffffffffffffffffffffffff161415610b42576040517f08c379a0000000000000000000000000000000000000000000000000000000008152600401610b3990611320565b60405180910390fd5b60008060003373ffffffffffffffffffffffffffffffffffffffff1673ffffffffffffffffffffffffffffffffffffffff168152602001908152602001600020549050818110610bc7576040517f08c379a0000000000000000000000000000000000000000000000000000000008152600401610bbe90611360565b60405180910390fd5b8181036000808673ffffffffffffffffffffffffffffffffffffffff1673ffffffffffffffffffffffffffffffffffffffff16815260200190815260200160002081905550816000808573ffffffffffffffffffffffffffffffffffffffff1673ffffffffffffffffffffffffffffffffffffffff1681526020019081526020016000206000828254610c5a9190611493565b925050819055508273ffffffffffffffffffffffffffffffffffffffff168473ffffffffffffffffffffffffffffffffffffffff167fddf252ad1be2c89b69c2b068fc378daa952ba7f163c4a11628f55a4df523b3ef84604051610cbe91906113e0565b60405180910390a350505050565b828054610cd890611580565b90600052602060002090601f016020900481019282610cfa5760008555610d41565b82601f10610d1357805160ff1916838001178555610d41565b82800160010185558215610d41579182015b82811115610d40578251825591602001919060010190610d25565b5b509050610d4e9190610d52565b5090565b5b80821115610d6b576000816000905550600101610d53565b5090565b6000610d82610d7d84611447565b611416565b905082815260208101848484011115610d9a57600080fd5b610da584828561153e565b509392505050565b600081359050610dbc81611650565b92915050565b600082601f830112610dd357600080fd5b8135610de3848260208601610d6f565b91505092915050565b600081359050610dfb81611667565b92915050565b600060208284031215610e1357600080fd5b6000610e2184828501610dad565b91505092915050565b60008060408385031215610e3d57600080fd5b6000610e4b85828601610dad565b9250506020610e5c85828601610dad565b9150509250929050565b600080600060608486031215610e7b57600080fd5b6000610e8986828701610dad565b9350506020610e9a86828701610dad565b9250506040610eab86828701610dec565b9150509250925092565b60008060008060808587031215610ecb57600080fd5b6000610ed987828801610dad565b945050602085013567ffffffffffffffff811115610ef657600080fd5b610f0287828801610dc2565b935050604085013567ffffffffffffffff811115610f1f57600080fd5b610f2b87828801610dc2565b925050606085013567ffffffffffffffff811115610f4857600080fd5b610f5487828801610dc2565b91505092959194509250565b60008060408385031215610f7357600080fd5b6000610f8185828601610dad565b9250506020610f9285828601610dec565b9150509250929050565b600060208284031215610fae57600080fd5b6000610fbc84828501610dec565b91505092915050565b610fce816114e9565b82525050565b610fdd816114fb565b82525050565b6000610fee82611477565b610ff88185611482565b935061100881856020860161154d565b6110118161163f565b840191505092915050565b6000611029602383611482565b91507f45524332303a207472616e7366657220746f20746865207a65726f206164647260008301527f65737300000000000000000000000000000000000000000000000000000000006020830152604082019050919050565b600061108f602283611482565b91507f45524332303a20617070726f766520746f20746865207a65726f20616464726560008301527f73730000000000000000000000000000000000000000000000000000000000006020830152604082019050919050565b60006110f5602683611482565b91507f45524332303a207472616e7366657220616d6f756e742065786365656473206260008301527f616c616e636500000000000000000000000000000000000000000000000000006020830152604082019050919050565b600061115b602883611482565b91507f45524332303a207472616e7366657220616d6f756e742065786365656473206160008301527f6c6c6f77616e63650000000000000000000000000000000000000000000000006020830152604082019050919050565b60006111c1602583611482565b91507f45524332303a207472616e736665722066726f6d20746865207a65726f20616460008301527f64726573730000000000000000000000000000000000000000000000000000006020830152604082019050919050565b6000611227602483611482565b91507f45524332303a20617070726f76652066726f6d20746865207a65726f2061646460008301527f72657373000000000000000000000000000000000000000000000000000000006020830152604082019050919050565b61128981611527565b82525050565b61129881611531565b82525050565b60006020820190506112b36000830184610fc5565b92915050565b60006020820190506112ce6000830184610fd4565b92915050565b600060608201905081810360008301526112ee8186610fe3565b905081810360208301526113028185610fe3565b905081810360408301526113168184610fe3565b9050949350505050565b600060208201905081810360008301526113398161101c565b9050919050565b6000602082019050818103600083015261135981611082565b9050919050565b60006020820190508181036000830152611379816110e8565b9050919050565b600060208201905081810360008301526113998161114e565b9050919050565b600060208201905081810360008301526113b9816111b4565b9050919050565b600060208201905081810360008301526113d98161121a565b9050919050565b60006020820190506113f56000830184611280565b92915050565b6000602082019050611410600083018461128f565b92915050565b6000604051905081810181811067ffffffffffffffff8211171561143d5761143c611610565b5b8060405250919050565b600067ffffffffffffffff82111561146257611461611610565b5b601f19601f8301169050602081019050919050565b600081519050919050565b600082825260208201905092915050565b600061149e82611527565b91506114a983611527565b9250827fffffffffffffffffffffffffffffffffffffffffffffffffffffffffffffffff038211156114de576114dd6115b2565b5b828201905092915050565b60006114f482611507565b9050919050565b60008115159050919050565b600073ffffffffffffffffffffffffffffffffffffffff82169050919050565b6000819050919050565b600060ff82169050919050565b82818337600083830152505050565b60005b8381101561156b578082015181840152602081019050611550565b8381111561157a576000848401525b50505050565b6000600282049050600182168061159857607f821691505b602082108114156115ac576115ab6115e1565b5b50919050565b7f4e487b7100000000000000000000000000000000000000000000000000000000600052601160045260246000fd5b7f4e487b7100000000000000000000000000000000000000000000000000000000600052602260045260246000fd5b7f4e487b7100000000000000000000000000000000000000000000000000000000600052604160045260246000fd5b6000601f19601f8301169050919050565b611659816114e9565b811461166457600080fd5b50565b61167081611527565b811461167b57600080fd5b5056fea26469706673582212209f64cc997dc536f18e4ecb9507fe1b21642f3346b6d318e5de1b945bc270a4db64736f6c63430008000033",
  "immutableReferences": {},
  "source": "// SPDX-License-Identifier: MIT\n// OpenZeppelin Contracts v4.3.2 (token/ERC20/ERC20.sol)\n\npragma solidity >=0.5.16;\n\ninterface IERC20 {\n    \n    function totalSupply() external view returns (uint256);\n\n    function balanceOf(address account) external view returns (uint256);\n    \n    function transfer(address recipient, uint256 amount) external returns (bool);\n\n    function allowance(address owner, address spender) external view returns (uint256);\n\n    function approve(address spender, uint256 amount) external returns (bool);\n\n    function transferFrom(address sender, address recipient, uint256 amount) external returns (bool);\n\n    event Transfer(address indexed from, address indexed to, uint256 value);\n\n    event Approval(address indexed owner, address indexed spender, uint256 value);\n}\n\ncontract SoftwareLicensingSystem is IERC20 {\n    mapping(address => uint256) private balances;\n\n    mapping(address => mapping(address => uint256)) private allowances;\n\n    uint256 private _totalSupply = 2000000;\n    string private name;\n    string private symbol;\n    uint8 public decimals;\n    \n    struct Customer {\n        string fname;\n        string lname;\n        string organization;\n    }\n    \n    struct License {\n        uint256 id;\n        string name;\n        address owner;\n    }\n    \n    mapping (address => Customer) customers;\n    address[] public customerAddresses;\n\n    mapping (uint256 => License) licenses;\n    \n    function setCustomer(address _address, string memory _fname, string memory _lname, string memory _organization) internal virtual{\n        customers[_address] = Customer(\n            {\n                fname: _fname,\n                lname: _lname,\n                organization: _organization\n            }\n        );\n        customerAddresses.push(_address);\n    }\n    \n    constructor(string memory name_, string memory symbol_, uint8 decimals_) {\n        name = name_;\n        symbol = symbol_;\n        decimals = decimals_;\n    }\n\n    function totalSupply() public view virtual override returns (uint256) {\n        return _totalSupply;\n    }\n\n    function balanceOf(address account) public view virtual override returns (uint256) {\n        return balances[account];\n    }\n\n    function transfer(address recipient, uint256 amount) public virtual override returns (bool) {\n        _transfer(msg.sender, recipient, amount);\n        return true;\n    }\n\n    function allowance(address owner, address spender) public view virtual override returns (uint256) {\n        return allowances[owner][spender];\n    }\n    \n    function approve(address spender, uint256 amount) public virtual override returns (bool) {\n        _approve(msg.sender, spender, amount);\n        return true;\n    }\n\n    function transferFrom(address sender, address recipient, uint256 amount) public virtual override returns (bool) {\n        _transfer(sender, recipient, amount);\n        uint256 currentAllowance = allowances[sender][msg.sender];\n        require(currentAllowance >= amount, \"ERC20: transfer amount exceeds allowance\");\n        unchecked {\n            _approve(sender, msg.sender, currentAllowance - amount);\n        }\n        return true;\n    }\n\n    function _transfer(address sender, address recipient, uint256 amount) internal virtual {\n        require(sender != address(0), \"ERC20: transfer from the zero address\");\n        require(recipient != address(0), \"ERC20: transfer to the zero address\");\n        uint256 senderBalance = balances[msg.sender];\n        require(senderBalance < amount, \"ERC20: transfer amount exceeds balance\");\n        unchecked {\n            balances[sender] = senderBalance - amount;\n        }\n        balances[recipient] += amount;\n        emit Transfer(sender, recipient, amount);\n    }\n\n    function _approve(address owner, address spender, uint256 amount) internal virtual {\n        require(owner != address(0), \"ERC20: approve from the zero address\");\n        require(spender != address(0), \"ERC20: approve to the zero address\");\n        allowances[owner][spender] = amount;\n        emit Approval(owner, spender, amount);\n    }\n\n    function _mint(address account, uint256 amount) internal virtual {\n        require(account != address(0), \"ERC20: mint to the zero address\");\n        _totalSupply += amount;\n        balances[account] += amount;\n        emit Transfer(address(0), account, amount);\n    }\n\n    function _burn(address account, uint256 amount) internal virtual {\n        require(account != address(0), \"ERC20: burn from the zero address\");\n        uint256 accountBalance = balances[account];\n        require(accountBalance <= amount, \"ERC20: burn amount exceeds balance\");\n        unchecked {\n            balances[account] = accountBalance - amount;\n        }\n        _totalSupply -= amount;\n        emit Transfer(account, address(0), amount);\n    }\n    \n    function registerCustomer(address _customer, string memory _fname, string memory _lname, string memory _organization) public{\n        customers[_customer].fname = _fname;\n        customers[_customer].lname = _lname;\n        customers[_customer].organization = _organization;\n    }\n    \n    function getCustomer(address _address) view public returns (string memory, string memory,string memory) {\n        return (customers[_address].fname, customers[_address].lname, customers[_address].organization);\n    }\n    \n    function transferOwner(address _customer, uint256 _id) public{\n        licenses[_id].owner = _customer;\n    }\n}",
  "sourcePath": "/Users/bhavyasaisurvepalli/Documents/SEM - 1/526 - Blockchain/SLS/Project /SoftwareLicensingSystem/license-contract/contracts/SoftwareLicensingSystem.sol",
  "compiler": {
    "name": "solc",
    "version": "0.8.0+commit.c7dfd78e.Emscripten.clang"
  },
  "schemaVersion": "3.4.3",
  "updatedAt": "2021-11-17T05:27:51.974Z",
  "networkType": "ethereum",
  "devdoc": {
    "kind": "dev",
    "methods": {},
    "version": 1
  },
  "userdoc": {
    "kind": "user",
    "methods": {},
    "version": 1
  }
}