{
  "contractName": "SoftwareLicensingSystem",
  "abi": [
    {
      "inputs": [
        {
          "internalType": "string",
          "name": "name_",
          "type": "string"
        },
        {
          "internalType": "string",
          "name": "symbol_",
          "type": "string"
        },
        {
          "internalType": "uint8",
          "name": "decimals_",
          "type": "uint8"
        }
      ],
      "stateMutability": "nonpayable",
      "type": "constructor"
    },
    {
      "anonymous": false,
      "inputs": [
        {
          "indexed": true,
          "internalType": "address",
          "name": "owner",
          "type": "address"
        },
        {
          "indexed": true,
          "internalType": "address",
          "name": "spender",
          "type": "address"
        },
        {
          "indexed": false,
          "internalType": "uint256",
          "name": "value",
          "type": "uint256"
        }
      ],
      "name": "Approval",
      "type": "event"
    },
    {
      "anonymous": false,
      "inputs": [
        {
          "indexed": true,
          "internalType": "address",
          "name": "from",
          "type": "address"
        },
        {
          "indexed": true,
          "internalType": "address",
          "name": "to",
          "type": "address"
        },
        {
          "indexed": false,
          "internalType": "uint256",
          "name": "value",
          "type": "uint256"
        }
      ],
      "name": "Transfer",
      "type": "event"
    },
    {
      "inputs": [
        {
          "internalType": "uint256",
          "name": "",
          "type": "uint256"
        }
      ],
      "name": "customerAddresses",
      "outputs": [
        {
          "internalType": "address",
          "name": "",
          "type": "address"
        }
      ],
      "stateMutability": "view",
      "type": "function",
      "constant": true
    },
    {
      "inputs": [],
      "name": "decimals",
      "outputs": [
        {
          "internalType": "uint8",
          "name": "",
          "type": "uint8"
        }
      ],
      "stateMutability": "view",
      "type": "function",
      "constant": true
    },
    {
      "inputs": [],
      "name": "totalSupply",
      "outputs": [
        {
          "internalType": "uint256",
          "name": "",
          "type": "uint256"
        }
      ],
      "stateMutability": "view",
      "type": "function",
      "constant": true
    },
    {
      "inputs": [
        {
          "internalType": "address",
          "name": "account",
          "type": "address"
        }
      ],
      "name": "balanceOf",
      "outputs": [
        {
          "internalType": "uint256",
          "name": "",
          "type": "uint256"
        }
      ],
      "stateMutability": "view",
      "type": "function",
      "constant": true
    },
    {
      "inputs": [
        {
          "internalType": "address",
          "name": "recipient",
          "type": "address"
        },
        {
          "internalType": "uint256",
          "name": "amount",
          "type": "uint256"
        }
      ],
      "name": "transfer",
      "outputs": [
        {
          "internalType": "bool",
          "name": "",
          "type": "bool"
        }
      ],
      "stateMutability": "nonpayable",
      "type": "function"
    },
    {
      "inputs": [
        {
          "internalType": "address",
          "name": "recipient",
          "type": "address"
        },
        {
          "internalType": "uint256",
          "name": "amount",
          "type": "uint256"
        }
      ],
      "name": "mint",
      "outputs": [
        {
          "internalType": "bool",
          "name": "",
          "type": "bool"
        }
      ],
      "stateMutability": "nonpayable",
      "type": "function"
    },
    {
      "inputs": [
        {
          "internalType": "address",
          "name": "owner",
          "type": "address"
        },
        {
          "internalType": "address",
          "name": "spender",
          "type": "address"
        }
      ],
      "name": "allowance",
      "outputs": [
        {
          "internalType": "uint256",
          "name": "",
          "type": "uint256"
        }
      ],
      "stateMutability": "view",
      "type": "function",
      "constant": true
    },
    {
      "inputs": [
        {
          "internalType": "address",
          "name": "spender",
          "type": "address"
        },
        {
          "internalType": "uint256",
          "name": "amount",
          "type": "uint256"
        }
      ],
      "name": "approve",
      "outputs": [
        {
          "internalType": "bool",
          "name": "",
          "type": "bool"
        }
      ],
      "stateMutability": "nonpayable",
      "type": "function"
    },
    {
      "inputs": [
        {
          "internalType": "address",
          "name": "sender",
          "type": "address"
        },
        {
          "internalType": "address",
          "name": "recipient",
          "type": "address"
        },
        {
          "internalType": "uint256",
          "name": "amount",
          "type": "uint256"
        }
      ],
      "name": "transferFrom",
      "outputs": [
        {
          "internalType": "bool",
          "name": "",
          "type": "bool"
        }
      ],
      "stateMutability": "nonpayable",
      "type": "function"
    },
    {
      "inputs": [
        {
          "internalType": "address",
          "name": "_customer",
          "type": "address"
        },
        {
          "internalType": "string",
          "name": "_fname",
          "type": "string"
        },
        {
          "internalType": "string",
          "name": "_lname",
          "type": "string"
        },
        {
          "internalType": "string",
          "name": "_organization",
          "type": "string"
        }
      ],
      "name": "registerCustomer",
      "outputs": [],
      "stateMutability": "nonpayable",
      "type": "function"
    },
    {
      "inputs": [
        {
          "internalType": "uint256",
          "name": "_id",
          "type": "uint256"
        },
        {
          "internalType": "string",
          "name": "_name",
          "type": "string"
        },
        {
          "internalType": "address",
          "name": "_owner",
          "type": "address"
        }
      ],
      "name": "requestLicense",
      "outputs": [],
      "stateMutability": "nonpayable",
      "type": "function"
    },
    {
      "inputs": [
        {
          "internalType": "uint256",
          "name": "_id",
          "type": "uint256"
        },
        {
          "internalType": "string",
          "name": "_name",
          "type": "string"
        },
        {
          "internalType": "address",
          "name": "_seller",
          "type": "address"
        },
        {
          "internalType": "address",
          "name": "_customer",
          "type": "address"
        }
      ],
      "name": "transferOwner",
      "outputs": [],
      "stateMutability": "nonpayable",
      "type": "function"
    },
    {
      "inputs": [
        {
          "internalType": "uint256",
          "name": "id",
          "type": "uint256"
        }
      ],
      "name": "viewOwner",
      "outputs": [
        {
          "internalType": "address",
          "name": "currOwner",
          "type": "address"
        }
      ],
      "stateMutability": "view",
      "type": "function",
      "constant": true
    },
    {
      "inputs": [
        {
          "internalType": "address",
          "name": "_customer",
          "type": "address"
        },
        {
          "internalType": "address",
          "name": "_owner",
          "type": "address"
        },
        {
          "internalType": "uint256",
          "name": "_amount",
          "type": "uint256"
        }
      ],
      "name": "makePayment",
      "outputs": [],
      "stateMutability": "payable",
      "type": "function",
      "payable": true
    }
  ],
  "bytecode": "0x6080604052621e8480600255600a6006553480156200001d57600080fd5b5060405162001cf738038062001cf78339818101604052810190620000439190620001d2565b82600390805190602001906200005b92919062000099565b5081600490805190602001906200007492919062000099565b5080600560006101000a81548160ff021916908360ff160217905550505050620003b2565b828054620000a79062000304565b90600052602060002090601f016020900481019282620000cb576000855562000117565b82601f10620000e657805160ff191683800117855562000117565b8280016001018555821562000117579182015b8281111562000116578251825591602001919060010190620000f9565b5b5090506200012691906200012a565b5090565b5b80821115620001455760008160009055506001016200012b565b5090565b6000620001606200015a846200028e565b6200025a565b9050828152602081018484840111156200017957600080fd5b62000186848285620002ce565b509392505050565b600082601f830112620001a057600080fd5b8151620001b284826020860162000149565b91505092915050565b600081519050620001cc8162000398565b92915050565b600080600060608486031215620001e857600080fd5b600084015167ffffffffffffffff8111156200020357600080fd5b62000211868287016200018e565b935050602084015167ffffffffffffffff8111156200022f57600080fd5b6200023d868287016200018e565b92505060406200025086828701620001bb565b9150509250925092565b6000604051905081810181811067ffffffffffffffff8211171562000284576200028362000369565b5b8060405250919050565b600067ffffffffffffffff821115620002ac57620002ab62000369565b5b601f19601f8301169050602081019050919050565b600060ff82169050919050565b60005b83811015620002ee578082015181840152602081019050620002d1565b83811115620002fe576000848401525b50505050565b600060028204905060018216806200031d57607f821691505b602082108114156200033457620003336200033a565b5b50919050565b7f4e487b7100000000000000000000000000000000000000000000000000000000600052602260045260246000fd5b7f4e487b7100000000000000000000000000000000000000000000000000000000600052604160045260246000fd5b620003a381620002c1565b8114620003af57600080fd5b50565b61193580620003c26000396000f3fe6080604052600436106100dd5760003560e01c806370a082311161007f57806392eb104c1161005957806392eb104c146102d7578063a9059cbb14610314578063ae60311014610351578063dd62ed3e1461037a576100dd565b806370a082311461025557806387e660d3146102925780638f2bc011146102ae576100dd565b806323b872dd116100bb57806323b872dd14610173578063313ce567146101b05780633a47c460146101db57806340c10f1914610218576100dd565b806306153e7e146100e2578063095ea7b31461010b57806318160ddd14610148575b600080fd5b3480156100ee57600080fd5b506101096004803603810190610104919061123f565b6103b7565b005b34801561011757600080fd5b50610132600480360381019061012d9190611173565b6104bd565b60405161013f91906115b5565b60405180910390f35b34801561015457600080fd5b5061015d6104d4565b60405161016a91906116b0565b60405180910390f35b34801561017f57600080fd5b5061019a60048036038101906101959190611079565b6104de565b6040516101a791906115b5565b60405180910390f35b3480156101bc57600080fd5b506101c56105c7565b6040516101d291906116cb565b60405180910390f35b3480156101e757600080fd5b5061020260048036038101906101fd91906111af565b6105da565b60405161020f919061159a565b60405180910390f35b34801561022457600080fd5b5061023f600480360381019061023a9190611173565b610619565b60405161024c91906115b5565b60405180910390f35b34801561026157600080fd5b5061027c60048036038101906102779190611014565b61062f565b60405161028991906116b0565b60405180910390f35b6102ac60048036038101906102a79190611079565b610677565b005b3480156102ba57600080fd5b506102d560048036038101906102d091906111d8565b610694565b005b3480156102e357600080fd5b506102fe60048036038101906102f991906111af565b610734565b60405161030b919061159a565b60405180910390f35b34801561032057600080fd5b5061033b60048036038101906103369190611173565b610774565b60405161034891906115b5565b60405180910390f35b34801561035d57600080fd5b50610378600480360381019061037391906110c8565b61078b565b005b34801561038657600080fd5b506103a1600480360381019061039c919061103d565b6108db565b6040516103ae91906116b0565b60405180910390f35b806001600a60008373ffffffffffffffffffffffffffffffffffffffff1673ffffffffffffffffffffffffffffffffffffffff168152602001908152602001600020541461040457600080fd5b6006546000808573ffffffffffffffffffffffffffffffffffffffff1673ffffffffffffffffffffffffffffffffffffffff1681526020019081526020016000205414156104b157610457858585610694565b816009600087815260200190815260200160002060020160006101000a81548173ffffffffffffffffffffffffffffffffffffffff021916908373ffffffffffffffffffffffffffffffffffffffff1602179055506104b6565b600080fd5b5050505050565b60006104ca338484610962565b6001905092915050565b6000600254905090565b60006104eb848484610b2d565b6000600160008673ffffffffffffffffffffffffffffffffffffffff1673ffffffffffffffffffffffffffffffffffffffff16815260200190815260200160002060003373ffffffffffffffffffffffffffffffffffffffff1673ffffffffffffffffffffffffffffffffffffffff1681526020019081526020016000205490508281106105ae576040517f08c379a00000000000000000000000000000000000000000000000000000000081526004016105a590611630565b60405180910390fd5b6105bb8533858403610962565b60019150509392505050565b600560009054906101000a900460ff1681565b600881815481106105ea57600080fd5b906000526020600020016000915054906101000a900473ffffffffffffffffffffffffffffffffffffffff1681565b60006106258383610d97565b6001905092915050565b60008060008373ffffffffffffffffffffffffffffffffffffffff1673ffffffffffffffffffffffffffffffffffffffff168152602001908152602001600020549050919050565b6106818382610d97565b61068e83836006546104de565b50505050565b826009600085815260200190815260200160002060000181905550816009600085815260200190815260200160002060010190805190602001906106d9929190610edf565b50806009600085815260200190815260200160002060020160006101000a81548173ffffffffffffffffffffffffffffffffffffffff021916908373ffffffffffffffffffffffffffffffffffffffff160217905550505050565b60006009600083815260200190815260200160002060020160009054906101000a900473ffffffffffffffffffffffffffffffffffffffff169050919050565b6000610781338484610b2d565b6001905092915050565b82600760008673ffffffffffffffffffffffffffffffffffffffff1673ffffffffffffffffffffffffffffffffffffffff16815260200190815260200160002060000190805190602001906107e1929190610edf565b5081600760008673ffffffffffffffffffffffffffffffffffffffff1673ffffffffffffffffffffffffffffffffffffffff1681526020019081526020016000206001019080519060200190610838929190610edf565b5080600760008673ffffffffffffffffffffffffffffffffffffffff1673ffffffffffffffffffffffffffffffffffffffff168152602001908152602001600020600201908051906020019061088f929190610edf565b506001600a60008673ffffffffffffffffffffffffffffffffffffffff1673ffffffffffffffffffffffffffffffffffffffff1681526020019081526020016000208190555050505050565b6000600160008473ffffffffffffffffffffffffffffffffffffffff1673ffffffffffffffffffffffffffffffffffffffff16815260200190815260200160002060008373ffffffffffffffffffffffffffffffffffffffff1673ffffffffffffffffffffffffffffffffffffffff16815260200190815260200160002054905092915050565b600073ffffffffffffffffffffffffffffffffffffffff168373ffffffffffffffffffffffffffffffffffffffff1614156109d2576040517f08c379a00000000000000000000000000000000000000000000000000000000081526004016109c990611670565b60405180910390fd5b600073ffffffffffffffffffffffffffffffffffffffff168273ffffffffffffffffffffffffffffffffffffffff161415610a42576040517f08c379a0000000000000000000000000000000000000000000000000000000008152600401610a39906115f0565b60405180910390fd5b80600160008573ffffffffffffffffffffffffffffffffffffffff1673ffffffffffffffffffffffffffffffffffffffff16815260200190815260200160002060008473ffffffffffffffffffffffffffffffffffffffff1673ffffffffffffffffffffffffffffffffffffffff168152602001908152602001600020819055508173ffffffffffffffffffffffffffffffffffffffff168373ffffffffffffffffffffffffffffffffffffffff167f8c5be1e5ebec7d5bd14f71427d1e84f3dd0314c0f7b2291e5b200ac8c7c3b92583604051610b2091906116b0565b60405180910390a3505050565b600073ffffffffffffffffffffffffffffffffffffffff168373ffffffffffffffffffffffffffffffffffffffff161415610b9d576040517f08c379a0000000000000000000000000000000000000000000000000000000008152600401610b9490611650565b60405180910390fd5b600073ffffffffffffffffffffffffffffffffffffffff168273ffffffffffffffffffffffffffffffffffffffff161415610c0d576040517f08c379a0000000000000000000000000000000000000000000000000000000008152600401610c04906115d0565b60405180910390fd5b60008060003373ffffffffffffffffffffffffffffffffffffffff1673ffffffffffffffffffffffffffffffffffffffff168152602001908152602001600020549050818110610c92576040517f08c379a0000000000000000000000000000000000000000000000000000000008152600401610c8990611610565b60405180910390fd5b8181036000808673ffffffffffffffffffffffffffffffffffffffff1673ffffffffffffffffffffffffffffffffffffffff16815260200190815260200160002081905550816000808573ffffffffffffffffffffffffffffffffffffffff1673ffffffffffffffffffffffffffffffffffffffff1681526020019081526020016000206000828254610d259190611758565b925050819055508273ffffffffffffffffffffffffffffffffffffffff168473ffffffffffffffffffffffffffffffffffffffff167fddf252ad1be2c89b69c2b068fc378daa952ba7f163c4a11628f55a4df523b3ef84604051610d8991906116b0565b60405180910390a350505050565b600073ffffffffffffffffffffffffffffffffffffffff168273ffffffffffffffffffffffffffffffffffffffff161415610e07576040517f08c379a0000000000000000000000000000000000000000000000000000000008152600401610dfe90611690565b60405180910390fd5b8060026000828254610e199190611758565b92505081905550806000808473ffffffffffffffffffffffffffffffffffffffff1673ffffffffffffffffffffffffffffffffffffffff1681526020019081526020016000206000828254610e6e9190611758565b925050819055508173ffffffffffffffffffffffffffffffffffffffff16600073ffffffffffffffffffffffffffffffffffffffff167fddf252ad1be2c89b69c2b068fc378daa952ba7f163c4a11628f55a4df523b3ef83604051610ed391906116b0565b60405180910390a35050565b828054610eeb90611812565b90600052602060002090601f016020900481019282610f0d5760008555610f54565b82601f10610f2657805160ff1916838001178555610f54565b82800160010185558215610f54579182015b82811115610f53578251825591602001919060010190610f38565b5b509050610f619190610f65565b5090565b5b80821115610f7e576000816000905550600101610f66565b5090565b6000610f95610f9084611717565b6116e6565b905082815260208101848484011115610fad57600080fd5b610fb8848285611803565b509392505050565b600081359050610fcf816118d1565b92915050565b600082601f830112610fe657600080fd5b8135610ff6848260208601610f82565b91505092915050565b60008135905061100e816118e8565b92915050565b60006020828403121561102657600080fd5b600061103484828501610fc0565b91505092915050565b6000806040838503121561105057600080fd5b600061105e85828601610fc0565b925050602061106f85828601610fc0565b9150509250929050565b60008060006060848603121561108e57600080fd5b600061109c86828701610fc0565b93505060206110ad86828701610fc0565b92505060406110be86828701610fff565b9150509250925092565b600080600080608085870312156110de57600080fd5b60006110ec87828801610fc0565b945050602085013567ffffffffffffffff81111561110957600080fd5b61111587828801610fd5565b935050604085013567ffffffffffffffff81111561113257600080fd5b61113e87828801610fd5565b925050606085013567ffffffffffffffff81111561115b57600080fd5b61116787828801610fd5565b91505092959194509250565b6000806040838503121561118657600080fd5b600061119485828601610fc0565b92505060206111a585828601610fff565b9150509250929050565b6000602082840312156111c157600080fd5b60006111cf84828501610fff565b91505092915050565b6000806000606084860312156111ed57600080fd5b60006111fb86828701610fff565b935050602084013567ffffffffffffffff81111561121857600080fd5b61122486828701610fd5565b925050604061123586828701610fc0565b9150509250925092565b6000806000806080858703121561125557600080fd5b600061126387828801610fff565b945050602085013567ffffffffffffffff81111561128057600080fd5b61128c87828801610fd5565b935050604061129d87828801610fc0565b92505060606112ae87828801610fc0565b91505092959194509250565b6112c3816117ae565b82525050565b6112d2816117c0565b82525050565b60006112e5602383611747565b91507f45524332303a207472616e7366657220746f20746865207a65726f206164647260008301527f65737300000000000000000000000000000000000000000000000000000000006020830152604082019050919050565b600061134b602283611747565b91507f45524332303a20617070726f766520746f20746865207a65726f20616464726560008301527f73730000000000000000000000000000000000000000000000000000000000006020830152604082019050919050565b60006113b1602683611747565b91507f45524332303a207472616e7366657220616d6f756e742065786365656473206260008301527f616c616e636500000000000000000000000000000000000000000000000000006020830152604082019050919050565b6000611417602883611747565b91507f45524332303a207472616e7366657220616d6f756e742065786365656473206160008301527f6c6c6f77616e63650000000000000000000000000000000000000000000000006020830152604082019050919050565b600061147d602583611747565b91507f45524332303a207472616e736665722066726f6d20746865207a65726f20616460008301527f64726573730000000000000000000000000000000000000000000000000000006020830152604082019050919050565b60006114e3602483611747565b91507f45524332303a20617070726f76652066726f6d20746865207a65726f2061646460008301527f72657373000000000000000000000000000000000000000000000000000000006020830152604082019050919050565b6000611549601f83611747565b91507f45524332303a206d696e7420746f20746865207a65726f2061646472657373006000830152602082019050919050565b611585816117ec565b82525050565b611594816117f6565b82525050565b60006020820190506115af60008301846112ba565b92915050565b60006020820190506115ca60008301846112c9565b92915050565b600060208201905081810360008301526115e9816112d8565b9050919050565b600060208201905081810360008301526116098161133e565b9050919050565b60006020820190508181036000830152611629816113a4565b9050919050565b600060208201905081810360008301526116498161140a565b9050919050565b6000602082019050818103600083015261166981611470565b9050919050565b60006020820190508181036000830152611689816114d6565b9050919050565b600060208201905081810360008301526116a98161153c565b9050919050565b60006020820190506116c5600083018461157c565b92915050565b60006020820190506116e0600083018461158b565b92915050565b6000604051905081810181811067ffffffffffffffff8211171561170d5761170c6118a2565b5b8060405250919050565b600067ffffffffffffffff821115611732576117316118a2565b5b601f19601f8301169050602081019050919050565b600082825260208201905092915050565b6000611763826117ec565b915061176e836117ec565b9250827fffffffffffffffffffffffffffffffffffffffffffffffffffffffffffffffff038211156117a3576117a2611844565b5b828201905092915050565b60006117b9826117cc565b9050919050565b60008115159050919050565b600073ffffffffffffffffffffffffffffffffffffffff82169050919050565b6000819050919050565b600060ff82169050919050565b82818337600083830152505050565b6000600282049050600182168061182a57607f821691505b6020821081141561183e5761183d611873565b5b50919050565b7f4e487b7100000000000000000000000000000000000000000000000000000000600052601160045260246000fd5b7f4e487b7100000000000000000000000000000000000000000000000000000000600052602260045260246000fd5b7f4e487b7100000000000000000000000000000000000000000000000000000000600052604160045260246000fd5b6118da816117ae565b81146118e557600080fd5b50565b6118f1816117ec565b81146118fc57600080fd5b5056fea26469706673582212206b5fc44ab789fbab93d259b3210b2cf9ec872ed1c73e6ae806ec08e0a50055ea64736f6c63430008000033",
  "immutableReferences": {},
  "source": "// SPDX-License-Identifier: MIT\n// OpenZeppelin Contracts v4.3.2 (token/ERC20/ERC20.sol)\n\npragma solidity >=0.5.16;\n\ninterface IERC20 {\n    \n    function totalSupply() external view returns (uint256);\n\n    function balanceOf(address account) external view returns (uint256);\n    \n    function transfer(address recipient, uint256 amount) external returns (bool);\n\n    function allowance(address owner, address spender) external view returns (uint256);\n\n    function approve(address spender, uint256 amount) external returns (bool);\n\n    function transferFrom(address sender, address recipient, uint256 amount) external returns (bool);\n\n    event Transfer(address indexed from, address indexed to, uint256 value);\n\n    event Approval(address indexed owner, address indexed spender, uint256 value);\n}\n\ncontract SoftwareLicensingSystem is IERC20 {\n    mapping(address => uint256) private balances;\n\n    mapping(address => mapping(address => uint256)) private allowances;\n\n    uint256 private _totalSupply = 2000000;\n    string private name;\n    string private symbol;\n    uint8 public decimals;\n    uint256 private licenseValue = 10;\n    \n    struct Customer {\n        string fname;\n        string lname;\n        string organization;\n    }\n    \n    struct License {\n        uint256 id;\n        string name;\n        address owner;\n    }\n    \n    mapping (address => Customer) customers;\n    address[] public customerAddresses;\n\n    mapping (uint256 => License) licenses;\n\n    mapping (address => uint) sls_membership;\n\n    modifier onlyCustomer(address customer){\n        require(sls_membership[customer]==1);\n        _;\n    }\n    \n    constructor(string memory name_, string memory symbol_, uint8 decimals_) {\n        name = name_;\n        symbol = symbol_;\n        decimals = decimals_;\n    }\n\n    function totalSupply() public view virtual override returns (uint256) {\n        return _totalSupply;\n    }\n\n    function balanceOf(address account) public view virtual override returns (uint256) {\n        return balances[account];\n    }\n\n    function transfer(address recipient, uint256 amount) public virtual override returns (bool) {\n        _transfer(msg.sender, recipient, amount);\n        return true;\n    }\n    \n    function mint(address recipient, uint256 amount) public virtual returns (bool) {\n        _mint(recipient, amount);\n        return true;\n    }\n\n    function allowance(address owner, address spender) public view virtual override returns (uint256) {\n        return allowances[owner][spender];\n    }\n    \n    function approve(address spender, uint256 amount) public virtual override returns (bool) {\n        _approve(msg.sender, spender, amount);\n        return true;\n    }\n\n    function transferFrom(address sender, address recipient, uint256 amount) public virtual override returns (bool) {\n        _transfer(sender, recipient, amount);\n        uint256 currentAllowance = allowances[sender][msg.sender];\n        require(currentAllowance < amount, \"ERC20: transfer amount exceeds allowance\");\n        unchecked {\n            _approve(sender, msg.sender, currentAllowance - amount);\n        }\n        return true;\n    }\n\n    function _transfer(address sender, address recipient, uint256 amount) internal virtual {\n        require(sender != address(0), \"ERC20: transfer from the zero address\");\n        require(recipient != address(0), \"ERC20: transfer to the zero address\");\n        uint256 senderBalance = balances[msg.sender];\n        require(senderBalance < amount, \"ERC20: transfer amount exceeds balance\");\n        unchecked {\n            balances[sender] = senderBalance - amount;\n        }\n        balances[recipient] += amount;\n        emit Transfer(sender, recipient, amount);\n    }\n\n    function _approve(address owner, address spender, uint256 amount) internal virtual {\n        require(owner != address(0), \"ERC20: approve from the zero address\");\n        require(spender != address(0), \"ERC20: approve to the zero address\");\n        allowances[owner][spender] = amount;\n        emit Approval(owner, spender, amount);\n    }\n\n    function _mint(address account, uint256 amount) internal virtual {\n        require(account != address(0), \"ERC20: mint to the zero address\");\n        _totalSupply += amount;\n        balances[account] += amount;\n        emit Transfer(address(0), account, amount);\n    }\n\n    function _burn(address account, uint256 amount) internal virtual {\n        require(account != address(0), \"ERC20: burn from the zero address\");\n        uint256 accountBalance = balances[account];\n        require(accountBalance <= amount, \"ERC20: burn amount exceeds balance\");\n        unchecked {\n            balances[account] = accountBalance - amount;\n        }\n        _totalSupply -= amount;\n        emit Transfer(account, address(0), amount);\n    }\n    \n    function registerCustomer(address _customer, string memory _fname, string memory _lname, string memory _organization) public{\n        customers[_customer].fname = _fname;\n        customers[_customer].lname = _lname;\n        customers[_customer].organization = _organization;\n        sls_membership[_customer] = 1;\n    }\n\n    function requestLicense(uint256 _id, string memory _name, address _owner) public{\n        licenses[_id].id = _id;\n        licenses[_id].name = _name;\n        licenses[_id].owner = _owner;\n    }\n    \n    function transferOwner(uint256 _id, string memory _name, address _seller, address _customer) public onlyCustomer(_customer){\n        if(balances[_seller] == licenseValue){\n            requestLicense(_id, _name, _seller);\n            licenses[_id].owner = _customer;\n        }\n        else\n            revert();\n    }\n\n    function viewOwner(uint256 id) public view returns (address currOwner) {\n        return licenses[id].owner;\n    }\n    \n    function makePayment(address _customer, address _owner, uint256 _amount) public payable{\n        _mint(_customer, _amount);\n        transferFrom(_customer, _owner, licenseValue);\n    }\n}",
  "sourcePath": "/Users/bhavyasaisurvepalli/Documents/SEM - 1/526 - Blockchain/SLS/Project /SoftwareLicensingSystem/license-contract/contracts/SoftwareLicensingSystem.sol",
  "compiler": {
    "name": "solc",
    "version": "0.8.0+commit.c7dfd78e.Emscripten.clang"
  },
  "schemaVersion": "3.4.3",
  "updatedAt": "2021-11-25T07:58:03.329Z",
  "networkType": "ethereum",
  "devdoc": {
    "kind": "dev",
    "methods": {},
    "version": 1
  },
  "userdoc": {
    "kind": "user",
    "methods": {},
    "version": 1
  }
}