{
  "contractName": "SoftwareLicensingSystem",
  "abi": [
    {
      "inputs": [
        {
          "internalType": "string",
          "name": "name_",
          "type": "string"
        },
        {
          "internalType": "string",
          "name": "symbol_",
          "type": "string"
        },
        {
          "internalType": "uint8",
          "name": "decimals_",
          "type": "uint8"
        }
      ],
      "stateMutability": "nonpayable",
      "type": "constructor"
    },
    {
      "anonymous": false,
      "inputs": [
        {
          "indexed": true,
          "internalType": "address",
          "name": "owner",
          "type": "address"
        },
        {
          "indexed": true,
          "internalType": "address",
          "name": "spender",
          "type": "address"
        },
        {
          "indexed": false,
          "internalType": "uint256",
          "name": "value",
          "type": "uint256"
        }
      ],
      "name": "Approval",
      "type": "event"
    },
    {
      "anonymous": false,
      "inputs": [
        {
          "indexed": true,
          "internalType": "address",
          "name": "from",
          "type": "address"
        },
        {
          "indexed": true,
          "internalType": "address",
          "name": "to",
          "type": "address"
        },
        {
          "indexed": false,
          "internalType": "uint256",
          "name": "value",
          "type": "uint256"
        }
      ],
      "name": "Transfer",
      "type": "event"
    },
    {
      "inputs": [
        {
          "internalType": "uint256",
          "name": "",
          "type": "uint256"
        }
      ],
      "name": "customerAddresses",
      "outputs": [
        {
          "internalType": "address",
          "name": "",
          "type": "address"
        }
      ],
      "stateMutability": "view",
      "type": "function",
      "constant": true
    },
    {
      "inputs": [],
      "name": "decimals",
      "outputs": [
        {
          "internalType": "uint8",
          "name": "",
          "type": "uint8"
        }
      ],
      "stateMutability": "view",
      "type": "function",
      "constant": true
    },
    {
      "inputs": [],
      "name": "totalSupply",
      "outputs": [
        {
          "internalType": "uint256",
          "name": "",
          "type": "uint256"
        }
      ],
      "stateMutability": "view",
      "type": "function",
      "constant": true
    },
    {
      "inputs": [
        {
          "internalType": "address",
          "name": "account",
          "type": "address"
        }
      ],
      "name": "balanceOf",
      "outputs": [
        {
          "internalType": "uint256",
          "name": "",
          "type": "uint256"
        }
      ],
      "stateMutability": "view",
      "type": "function",
      "constant": true
    },
    {
      "inputs": [
        {
          "internalType": "address",
          "name": "recipient",
          "type": "address"
        },
        {
          "internalType": "uint256",
          "name": "amount",
          "type": "uint256"
        }
      ],
      "name": "transfer",
      "outputs": [
        {
          "internalType": "bool",
          "name": "",
          "type": "bool"
        }
      ],
      "stateMutability": "nonpayable",
      "type": "function"
    },
    {
      "inputs": [
        {
          "internalType": "address",
          "name": "owner",
          "type": "address"
        },
        {
          "internalType": "address",
          "name": "spender",
          "type": "address"
        }
      ],
      "name": "allowance",
      "outputs": [
        {
          "internalType": "uint256",
          "name": "",
          "type": "uint256"
        }
      ],
      "stateMutability": "view",
      "type": "function",
      "constant": true
    },
    {
      "inputs": [
        {
          "internalType": "address",
          "name": "spender",
          "type": "address"
        },
        {
          "internalType": "uint256",
          "name": "amount",
          "type": "uint256"
        }
      ],
      "name": "approve",
      "outputs": [
        {
          "internalType": "bool",
          "name": "",
          "type": "bool"
        }
      ],
      "stateMutability": "nonpayable",
      "type": "function"
    },
    {
      "inputs": [
        {
          "internalType": "address",
          "name": "sender",
          "type": "address"
        },
        {
          "internalType": "address",
          "name": "recipient",
          "type": "address"
        },
        {
          "internalType": "uint256",
          "name": "amount",
          "type": "uint256"
        }
      ],
      "name": "transferFrom",
      "outputs": [
        {
          "internalType": "bool",
          "name": "",
          "type": "bool"
        }
      ],
      "stateMutability": "nonpayable",
      "type": "function"
    },
    {
      "inputs": [
        {
          "internalType": "address",
          "name": "_customer",
          "type": "address"
        },
        {
          "internalType": "string",
          "name": "_fname",
          "type": "string"
        },
        {
          "internalType": "string",
          "name": "_lname",
          "type": "string"
        },
        {
          "internalType": "string",
          "name": "_organization",
          "type": "string"
        }
      ],
      "name": "registerCustomer",
      "outputs": [],
      "stateMutability": "nonpayable",
      "type": "function"
    },
    {
      "inputs": [
        {
          "internalType": "uint256",
          "name": "_id",
          "type": "uint256"
        },
        {
          "internalType": "string",
          "name": "_name",
          "type": "string"
        },
        {
          "internalType": "address",
          "name": "_owner",
          "type": "address"
        }
      ],
      "name": "registerLicense",
      "outputs": [],
      "stateMutability": "nonpayable",
      "type": "function"
    },
    {
      "inputs": [
        {
          "internalType": "address",
          "name": "_address",
          "type": "address"
        }
      ],
      "name": "getCustomer",
      "outputs": [
        {
          "internalType": "string",
          "name": "",
          "type": "string"
        },
        {
          "internalType": "string",
          "name": "",
          "type": "string"
        },
        {
          "internalType": "string",
          "name": "",
          "type": "string"
        }
      ],
      "stateMutability": "view",
      "type": "function",
      "constant": true
    },
    {
      "inputs": [
        {
          "internalType": "uint256",
          "name": "_id",
          "type": "uint256"
        },
        {
          "internalType": "string",
          "name": "_name",
          "type": "string"
        },
        {
          "internalType": "address",
          "name": "_seller",
          "type": "address"
        },
        {
          "internalType": "address",
          "name": "_customer",
          "type": "address"
        }
      ],
      "name": "transferOwner",
      "outputs": [],
      "stateMutability": "nonpayable",
      "type": "function"
    },
    {
      "inputs": [
        {
          "internalType": "uint256",
          "name": "id",
          "type": "uint256"
        }
      ],
      "name": "viewOwner",
      "outputs": [
        {
          "internalType": "address",
          "name": "currOwner",
          "type": "address"
        }
      ],
      "stateMutability": "view",
      "type": "function",
      "constant": true
    }
  ],
  "bytecode": "0x6080604052621e84806002553480156200001857600080fd5b5060405162001cb238038062001cb283398181016040528101906200003e9190620001cd565b82600390805190602001906200005692919062000094565b5081600490805190602001906200006f92919062000094565b5080600560006101000a81548160ff021916908360ff160217905550505050620003ad565b828054620000a290620002ff565b90600052602060002090601f016020900481019282620000c6576000855562000112565b82601f10620000e157805160ff191683800117855562000112565b8280016001018555821562000112579182015b8281111562000111578251825591602001919060010190620000f4565b5b50905062000121919062000125565b5090565b5b808211156200014057600081600090555060010162000126565b5090565b60006200015b620001558462000289565b62000255565b9050828152602081018484840111156200017457600080fd5b62000181848285620002c9565b509392505050565b600082601f8301126200019b57600080fd5b8151620001ad84826020860162000144565b91505092915050565b600081519050620001c78162000393565b92915050565b600080600060608486031215620001e357600080fd5b600084015167ffffffffffffffff811115620001fe57600080fd5b6200020c8682870162000189565b935050602084015167ffffffffffffffff8111156200022a57600080fd5b620002388682870162000189565b92505060406200024b86828701620001b6565b9150509250925092565b6000604051905081810181811067ffffffffffffffff821117156200027f576200027e62000364565b5b8060405250919050565b600067ffffffffffffffff821115620002a757620002a662000364565b5b601f19601f8301169050602081019050919050565b600060ff82169050919050565b60005b83811015620002e9578082015181840152602081019050620002cc565b83811115620002f9576000848401525b50505050565b600060028204905060018216806200031857607f821691505b602082108114156200032f576200032e62000335565b5b50919050565b7f4e487b7100000000000000000000000000000000000000000000000000000000600052602260045260246000fd5b7f4e487b7100000000000000000000000000000000000000000000000000000000600052604160045260246000fd5b6200039e81620002bc565b8114620003aa57600080fd5b50565b6118f580620003bd6000396000f3fe608060405234801561001057600080fd5b50600436106100cf5760003560e01c806370a082311161008c578063ae60311011610066578063ae6031101461024c578063cb949e5114610268578063dd62ed3e1461029a578063f073ee2c146102ca576100cf565b806370a08231146101bc57806392eb104c146101ec578063a9059cbb1461021c576100cf565b806306153e7e146100d4578063095ea7b3146100f057806318160ddd1461012057806323b872dd1461013e578063313ce5671461016e5780633a47c4601461018c575b600080fd5b6100ee60048036038101906100e9919061118b565b6102e6565b005b61010a600480360381019061010591906110bf565b61034c565b60405161011791906114fa565b60405180910390f35b610128610363565b6040516101359190611621565b60405180910390f35b61015860048036038101906101539190610fc5565b61036d565b60405161016591906114fa565b60405180910390f35b610176610457565b604051610183919061163c565b60405180910390f35b6101a660048036038101906101a191906110fb565b61046a565b6040516101b391906114df565b60405180910390f35b6101d660048036038101906101d19190610f60565b6104a9565b6040516101e39190611621565b60405180910390f35b610206600480360381019061020191906110fb565b6104f1565b60405161021391906114df565b60405180910390f35b610236600480360381019061023191906110bf565b610531565b60405161024391906114fa565b60405180910390f35b61026660048036038101906102619190611014565b610548565b005b610282600480360381019061027d9190610f60565b610653565b60405161029193929190611515565b60405180910390f35b6102b460048036038101906102af9190610f89565b6108cf565b6040516102c19190611621565b60405180910390f35b6102e460048036038101906102df9190611124565b610956565b005b6102f1848484610956565b806008600086815260200190815260200160002060020160006101000a81548173ffffffffffffffffffffffffffffffffffffffff021916908373ffffffffffffffffffffffffffffffffffffffff16021790555050505050565b60006103593384846109f6565b6001905092915050565b6000600254905090565b600061037a848484610bc1565b6000600160008673ffffffffffffffffffffffffffffffffffffffff1673ffffffffffffffffffffffffffffffffffffffff16815260200190815260200160002060003373ffffffffffffffffffffffffffffffffffffffff1673ffffffffffffffffffffffffffffffffffffffff1681526020019081526020016000205490508281101561043e576040517f08c379a0000000000000000000000000000000000000000000000000000000008152600401610435906115c1565b60405180910390fd5b61044b85338584036109f6565b60019150509392505050565b600560009054906101000a900460ff1681565b6007818154811061047a57600080fd5b906000526020600020016000915054906101000a900473ffffffffffffffffffffffffffffffffffffffff1681565b60008060008373ffffffffffffffffffffffffffffffffffffffff1673ffffffffffffffffffffffffffffffffffffffff168152602001908152602001600020549050919050565b60006008600083815260200190815260200160002060020160009054906101000a900473ffffffffffffffffffffffffffffffffffffffff169050919050565b600061053e338484610bc1565b6001905092915050565b82600660008673ffffffffffffffffffffffffffffffffffffffff1673ffffffffffffffffffffffffffffffffffffffff168152602001908152602001600020600001908051906020019061059e929190610e2b565b5081600660008673ffffffffffffffffffffffffffffffffffffffff1673ffffffffffffffffffffffffffffffffffffffff16815260200190815260200160002060010190805190602001906105f5929190610e2b565b5080600660008673ffffffffffffffffffffffffffffffffffffffff1673ffffffffffffffffffffffffffffffffffffffff168152602001908152602001600020600201908051906020019061064c929190610e2b565b5050505050565b6060806060600660008573ffffffffffffffffffffffffffffffffffffffff1673ffffffffffffffffffffffffffffffffffffffff168152602001908152602001600020600001600660008673ffffffffffffffffffffffffffffffffffffffff1673ffffffffffffffffffffffffffffffffffffffff168152602001908152602001600020600101600660008773ffffffffffffffffffffffffffffffffffffffff1673ffffffffffffffffffffffffffffffffffffffff16815260200190815260200160002060020182805461072a906117c1565b80601f0160208091040260200160405190810160405280929190818152602001828054610756906117c1565b80156107a35780601f10610778576101008083540402835291602001916107a3565b820191906000526020600020905b81548152906001019060200180831161078657829003601f168201915b505050505092508180546107b6906117c1565b80601f01602080910402602001604051908101604052809291908181526020018280546107e2906117c1565b801561082f5780601f106108045761010080835404028352916020019161082f565b820191906000526020600020905b81548152906001019060200180831161081257829003601f168201915b50505050509150808054610842906117c1565b80601f016020809104026020016040519081016040528092919081815260200182805461086e906117c1565b80156108bb5780601f10610890576101008083540402835291602001916108bb565b820191906000526020600020905b81548152906001019060200180831161089e57829003601f168201915b505050505090509250925092509193909250565b6000600160008473ffffffffffffffffffffffffffffffffffffffff1673ffffffffffffffffffffffffffffffffffffffff16815260200190815260200160002060008373ffffffffffffffffffffffffffffffffffffffff1673ffffffffffffffffffffffffffffffffffffffff16815260200190815260200160002054905092915050565b8260086000858152602001908152602001600020600001819055508160086000858152602001908152602001600020600101908051906020019061099b929190610e2b565b50806008600085815260200190815260200160002060020160006101000a81548173ffffffffffffffffffffffffffffffffffffffff021916908373ffffffffffffffffffffffffffffffffffffffff160217905550505050565b600073ffffffffffffffffffffffffffffffffffffffff168373ffffffffffffffffffffffffffffffffffffffff161415610a66576040517f08c379a0000000000000000000000000000000000000000000000000000000008152600401610a5d90611601565b60405180910390fd5b600073ffffffffffffffffffffffffffffffffffffffff168273ffffffffffffffffffffffffffffffffffffffff161415610ad6576040517f08c379a0000000000000000000000000000000000000000000000000000000008152600401610acd90611581565b60405180910390fd5b80600160008573ffffffffffffffffffffffffffffffffffffffff1673ffffffffffffffffffffffffffffffffffffffff16815260200190815260200160002060008473ffffffffffffffffffffffffffffffffffffffff1673ffffffffffffffffffffffffffffffffffffffff168152602001908152602001600020819055508173ffffffffffffffffffffffffffffffffffffffff168373ffffffffffffffffffffffffffffffffffffffff167f8c5be1e5ebec7d5bd14f71427d1e84f3dd0314c0f7b2291e5b200ac8c7c3b92583604051610bb49190611621565b60405180910390a3505050565b600073ffffffffffffffffffffffffffffffffffffffff168373ffffffffffffffffffffffffffffffffffffffff161415610c31576040517f08c379a0000000000000000000000000000000000000000000000000000000008152600401610c28906115e1565b60405180910390fd5b600073ffffffffffffffffffffffffffffffffffffffff168273ffffffffffffffffffffffffffffffffffffffff161415610ca1576040517f08c379a0000000000000000000000000000000000000000000000000000000008152600401610c9890611561565b60405180910390fd5b60008060003373ffffffffffffffffffffffffffffffffffffffff1673ffffffffffffffffffffffffffffffffffffffff168152602001908152602001600020549050818110610d26576040517f08c379a0000000000000000000000000000000000000000000000000000000008152600401610d1d906115a1565b60405180910390fd5b8181036000808673ffffffffffffffffffffffffffffffffffffffff1673ffffffffffffffffffffffffffffffffffffffff16815260200190815260200160002081905550816000808573ffffffffffffffffffffffffffffffffffffffff1673ffffffffffffffffffffffffffffffffffffffff1681526020019081526020016000206000828254610db991906116d4565b925050819055508273ffffffffffffffffffffffffffffffffffffffff168473ffffffffffffffffffffffffffffffffffffffff167fddf252ad1be2c89b69c2b068fc378daa952ba7f163c4a11628f55a4df523b3ef84604051610e1d9190611621565b60405180910390a350505050565b828054610e37906117c1565b90600052602060002090601f016020900481019282610e595760008555610ea0565b82601f10610e7257805160ff1916838001178555610ea0565b82800160010185558215610ea0579182015b82811115610e9f578251825591602001919060010190610e84565b5b509050610ead9190610eb1565b5090565b5b80821115610eca576000816000905550600101610eb2565b5090565b6000610ee1610edc84611688565b611657565b905082815260208101848484011115610ef957600080fd5b610f0484828561177f565b509392505050565b600081359050610f1b81611891565b92915050565b600082601f830112610f3257600080fd5b8135610f42848260208601610ece565b91505092915050565b600081359050610f5a816118a8565b92915050565b600060208284031215610f7257600080fd5b6000610f8084828501610f0c565b91505092915050565b60008060408385031215610f9c57600080fd5b6000610faa85828601610f0c565b9250506020610fbb85828601610f0c565b9150509250929050565b600080600060608486031215610fda57600080fd5b6000610fe886828701610f0c565b9350506020610ff986828701610f0c565b925050604061100a86828701610f4b565b9150509250925092565b6000806000806080858703121561102a57600080fd5b600061103887828801610f0c565b945050602085013567ffffffffffffffff81111561105557600080fd5b61106187828801610f21565b935050604085013567ffffffffffffffff81111561107e57600080fd5b61108a87828801610f21565b925050606085013567ffffffffffffffff8111156110a757600080fd5b6110b387828801610f21565b91505092959194509250565b600080604083850312156110d257600080fd5b60006110e085828601610f0c565b92505060206110f185828601610f4b565b9150509250929050565b60006020828403121561110d57600080fd5b600061111b84828501610f4b565b91505092915050565b60008060006060848603121561113957600080fd5b600061114786828701610f4b565b935050602084013567ffffffffffffffff81111561116457600080fd5b61117086828701610f21565b925050604061118186828701610f0c565b9150509250925092565b600080600080608085870312156111a157600080fd5b60006111af87828801610f4b565b945050602085013567ffffffffffffffff8111156111cc57600080fd5b6111d887828801610f21565b93505060406111e987828801610f0c565b92505060606111fa87828801610f0c565b91505092959194509250565b61120f8161172a565b82525050565b61121e8161173c565b82525050565b600061122f826116b8565b61123981856116c3565b935061124981856020860161178e565b61125281611880565b840191505092915050565b600061126a6023836116c3565b91507f45524332303a207472616e7366657220746f20746865207a65726f206164647260008301527f65737300000000000000000000000000000000000000000000000000000000006020830152604082019050919050565b60006112d06022836116c3565b91507f45524332303a20617070726f766520746f20746865207a65726f20616464726560008301527f73730000000000000000000000000000000000000000000000000000000000006020830152604082019050919050565b60006113366026836116c3565b91507f45524332303a207472616e7366657220616d6f756e742065786365656473206260008301527f616c616e636500000000000000000000000000000000000000000000000000006020830152604082019050919050565b600061139c6028836116c3565b91507f45524332303a207472616e7366657220616d6f756e742065786365656473206160008301527f6c6c6f77616e63650000000000000000000000000000000000000000000000006020830152604082019050919050565b60006114026025836116c3565b91507f45524332303a207472616e736665722066726f6d20746865207a65726f20616460008301527f64726573730000000000000000000000000000000000000000000000000000006020830152604082019050919050565b60006114686024836116c3565b91507f45524332303a20617070726f76652066726f6d20746865207a65726f2061646460008301527f72657373000000000000000000000000000000000000000000000000000000006020830152604082019050919050565b6114ca81611768565b82525050565b6114d981611772565b82525050565b60006020820190506114f46000830184611206565b92915050565b600060208201905061150f6000830184611215565b92915050565b6000606082019050818103600083015261152f8186611224565b905081810360208301526115438185611224565b905081810360408301526115578184611224565b9050949350505050565b6000602082019050818103600083015261157a8161125d565b9050919050565b6000602082019050818103600083015261159a816112c3565b9050919050565b600060208201905081810360008301526115ba81611329565b9050919050565b600060208201905081810360008301526115da8161138f565b9050919050565b600060208201905081810360008301526115fa816113f5565b9050919050565b6000602082019050818103600083015261161a8161145b565b9050919050565b600060208201905061163660008301846114c1565b92915050565b600060208201905061165160008301846114d0565b92915050565b6000604051905081810181811067ffffffffffffffff8211171561167e5761167d611851565b5b8060405250919050565b600067ffffffffffffffff8211156116a3576116a2611851565b5b601f19601f8301169050602081019050919050565b600081519050919050565b600082825260208201905092915050565b60006116df82611768565b91506116ea83611768565b9250827fffffffffffffffffffffffffffffffffffffffffffffffffffffffffffffffff0382111561171f5761171e6117f3565b5b828201905092915050565b600061173582611748565b9050919050565b60008115159050919050565b600073ffffffffffffffffffffffffffffffffffffffff82169050919050565b6000819050919050565b600060ff82169050919050565b82818337600083830152505050565b60005b838110156117ac578082015181840152602081019050611791565b838111156117bb576000848401525b50505050565b600060028204905060018216806117d957607f821691505b602082108114156117ed576117ec611822565b5b50919050565b7f4e487b7100000000000000000000000000000000000000000000000000000000600052601160045260246000fd5b7f4e487b7100000000000000000000000000000000000000000000000000000000600052602260045260246000fd5b7f4e487b7100000000000000000000000000000000000000000000000000000000600052604160045260246000fd5b6000601f19601f8301169050919050565b61189a8161172a565b81146118a557600080fd5b50565b6118b181611768565b81146118bc57600080fd5b5056fea26469706673582212201e277fe279895b14d969dbbcf9cf7f59e41868b72a65cbd46a285bb901a2ffcf64736f6c63430008000033",
  "immutableReferences": {},
  "source": "// SPDX-License-Identifier: MIT\n// OpenZeppelin Contracts v4.3.2 (token/ERC20/ERC20.sol)\n\npragma solidity >=0.5.16;\n\ninterface IERC20 {\n    \n    function totalSupply() external view returns (uint256);\n\n    function balanceOf(address account) external view returns (uint256);\n    \n    function transfer(address recipient, uint256 amount) external returns (bool);\n\n    function allowance(address owner, address spender) external view returns (uint256);\n\n    function approve(address spender, uint256 amount) external returns (bool);\n\n    function transferFrom(address sender, address recipient, uint256 amount) external returns (bool);\n\n    event Transfer(address indexed from, address indexed to, uint256 value);\n\n    event Approval(address indexed owner, address indexed spender, uint256 value);\n}\n\ncontract SoftwareLicensingSystem is IERC20 {\n    mapping(address => uint256) private balances;\n\n    mapping(address => mapping(address => uint256)) private allowances;\n\n    uint256 private _totalSupply = 2000000;\n    string private name;\n    string private symbol;\n    uint8 public decimals;\n    \n    struct Customer {\n        string fname;\n        string lname;\n        string organization;\n    }\n    \n    struct License {\n        uint256 id;\n        string name;\n        address owner;\n    }\n    \n    mapping (address => Customer) customers;\n    address[] public customerAddresses;\n\n    mapping (uint256 => License) licenses;\n    \n    function setCustomer(address _address, string memory _fname, string memory _lname, string memory _organization) internal virtual{\n        customers[_address] = Customer(\n            {\n                fname: _fname,\n                lname: _lname,\n                organization: _organization\n            }\n        );\n        customerAddresses.push(_address);\n    }\n    \n    constructor(string memory name_, string memory symbol_, uint8 decimals_) {\n        name = name_;\n        symbol = symbol_;\n        decimals = decimals_;\n    }\n\n    function totalSupply() public view virtual override returns (uint256) {\n        return _totalSupply;\n    }\n\n    function balanceOf(address account) public view virtual override returns (uint256) {\n        return balances[account];\n    }\n\n    function transfer(address recipient, uint256 amount) public virtual override returns (bool) {\n        _transfer(msg.sender, recipient, amount);\n        return true;\n    }\n\n    function allowance(address owner, address spender) public view virtual override returns (uint256) {\n        return allowances[owner][spender];\n    }\n    \n    function approve(address spender, uint256 amount) public virtual override returns (bool) {\n        _approve(msg.sender, spender, amount);\n        return true;\n    }\n\n    function transferFrom(address sender, address recipient, uint256 amount) public virtual override returns (bool) {\n        _transfer(sender, recipient, amount);\n        uint256 currentAllowance = allowances[sender][msg.sender];\n        require(currentAllowance >= amount, \"ERC20: transfer amount exceeds allowance\");\n        unchecked {\n            _approve(sender, msg.sender, currentAllowance - amount);\n        }\n        return true;\n    }\n\n    function _transfer(address sender, address recipient, uint256 amount) internal virtual {\n        require(sender != address(0), \"ERC20: transfer from the zero address\");\n        require(recipient != address(0), \"ERC20: transfer to the zero address\");\n        uint256 senderBalance = balances[msg.sender];\n        require(senderBalance < amount, \"ERC20: transfer amount exceeds balance\");\n        unchecked {\n            balances[sender] = senderBalance - amount;\n        }\n        balances[recipient] += amount;\n        emit Transfer(sender, recipient, amount);\n    }\n\n    function _approve(address owner, address spender, uint256 amount) internal virtual {\n        require(owner != address(0), \"ERC20: approve from the zero address\");\n        require(spender != address(0), \"ERC20: approve to the zero address\");\n        allowances[owner][spender] = amount;\n        emit Approval(owner, spender, amount);\n    }\n\n    function _mint(address account, uint256 amount) internal virtual {\n        require(account != address(0), \"ERC20: mint to the zero address\");\n        _totalSupply += amount;\n        balances[account] += amount;\n        emit Transfer(address(0), account, amount);\n    }\n\n    function _burn(address account, uint256 amount) internal virtual {\n        require(account != address(0), \"ERC20: burn from the zero address\");\n        uint256 accountBalance = balances[account];\n        require(accountBalance <= amount, \"ERC20: burn amount exceeds balance\");\n        unchecked {\n            balances[account] = accountBalance - amount;\n        }\n        _totalSupply -= amount;\n        emit Transfer(account, address(0), amount);\n    }\n    \n    function registerCustomer(address _customer, string memory _fname, string memory _lname, string memory _organization) public{\n        customers[_customer].fname = _fname;\n        customers[_customer].lname = _lname;\n        customers[_customer].organization = _organization;\n    }\n\n    function registerLicense(uint256 _id, string memory _name, address _owner) public{\n        licenses[_id].id = _id;\n        licenses[_id].name = _name;\n        licenses[_id].owner = _owner;\n    }\n    \n    function getCustomer(address _address) view public returns (string memory, string memory,string memory) {\n        return (customers[_address].fname, customers[_address].lname, customers[_address].organization);\n    }\n    \n    function transferOwner(uint256 _id, string memory _name, address _seller, address _customer) public{\n        registerLicense(_id, _name, _seller);\n        licenses[_id].owner = _customer;\n    }\n\n    function viewOwner(uint256 id) public view returns (address currOwner) {\n        return licenses[id].owner;\n    }\n}",
  "sourcePath": "/Users/bhavyasaisurvepalli/Documents/SEM - 1/526 - Blockchain/SLS/Project /SoftwareLicensingSystem/license-contract/contracts/SoftwareLicensingSystem.sol",
  "compiler": {
    "name": "solc",
    "version": "0.8.0+commit.c7dfd78e.Emscripten.clang"
  },
  "schemaVersion": "3.4.3",
  "updatedAt": "2021-11-17T08:18:50.342Z",
  "networkType": "ethereum",
  "devdoc": {
    "kind": "dev",
    "methods": {},
    "version": 1
  },
  "userdoc": {
    "kind": "user",
    "methods": {},
    "version": 1
  }
}