{
  "contractName": "SoftwareLicensingSystem",
  "abi": [
    {
      "inputs": [
        {
          "internalType": "string",
          "name": "name_",
          "type": "string"
        },
        {
          "internalType": "string",
          "name": "symbol_",
          "type": "string"
        },
        {
          "internalType": "uint8",
          "name": "decimals_",
          "type": "uint8"
        }
      ],
      "stateMutability": "nonpayable",
      "type": "constructor"
    },
    {
      "anonymous": false,
      "inputs": [
        {
          "indexed": true,
          "internalType": "address",
          "name": "owner",
          "type": "address"
        },
        {
          "indexed": true,
          "internalType": "address",
          "name": "spender",
          "type": "address"
        },
        {
          "indexed": false,
          "internalType": "uint256",
          "name": "value",
          "type": "uint256"
        }
      ],
      "name": "Approval",
      "type": "event"
    },
    {
      "anonymous": false,
      "inputs": [
        {
          "indexed": true,
          "internalType": "address",
          "name": "from",
          "type": "address"
        },
        {
          "indexed": true,
          "internalType": "address",
          "name": "to",
          "type": "address"
        },
        {
          "indexed": false,
          "internalType": "uint256",
          "name": "value",
          "type": "uint256"
        }
      ],
      "name": "Transfer",
      "type": "event"
    },
    {
      "inputs": [
        {
          "internalType": "uint256",
          "name": "",
          "type": "uint256"
        }
      ],
      "name": "customerAddresses",
      "outputs": [
        {
          "internalType": "address",
          "name": "",
          "type": "address"
        }
      ],
      "stateMutability": "view",
      "type": "function",
      "constant": true
    },
    {
      "inputs": [],
      "name": "decimals",
      "outputs": [
        {
          "internalType": "uint8",
          "name": "",
          "type": "uint8"
        }
      ],
      "stateMutability": "view",
      "type": "function",
      "constant": true
    },
    {
      "inputs": [],
      "name": "totalSupply",
      "outputs": [
        {
          "internalType": "uint256",
          "name": "",
          "type": "uint256"
        }
      ],
      "stateMutability": "view",
      "type": "function",
      "constant": true
    },
    {
      "inputs": [
        {
          "internalType": "address",
          "name": "account",
          "type": "address"
        }
      ],
      "name": "balanceOf",
      "outputs": [
        {
          "internalType": "uint256",
          "name": "",
          "type": "uint256"
        }
      ],
      "stateMutability": "view",
      "type": "function",
      "constant": true
    },
    {
      "inputs": [
        {
          "internalType": "address",
          "name": "recipient",
          "type": "address"
        },
        {
          "internalType": "uint256",
          "name": "amount",
          "type": "uint256"
        }
      ],
      "name": "transfer",
      "outputs": [
        {
          "internalType": "bool",
          "name": "",
          "type": "bool"
        }
      ],
      "stateMutability": "nonpayable",
      "type": "function"
    },
    {
      "inputs": [
        {
          "internalType": "address",
          "name": "recipient",
          "type": "address"
        },
        {
          "internalType": "uint256",
          "name": "amount",
          "type": "uint256"
        }
      ],
      "name": "mint",
      "outputs": [
        {
          "internalType": "bool",
          "name": "",
          "type": "bool"
        }
      ],
      "stateMutability": "nonpayable",
      "type": "function"
    },
    {
      "inputs": [
        {
          "internalType": "address",
          "name": "owner",
          "type": "address"
        },
        {
          "internalType": "address",
          "name": "spender",
          "type": "address"
        }
      ],
      "name": "allowance",
      "outputs": [
        {
          "internalType": "uint256",
          "name": "",
          "type": "uint256"
        }
      ],
      "stateMutability": "view",
      "type": "function",
      "constant": true
    },
    {
      "inputs": [
        {
          "internalType": "address",
          "name": "spender",
          "type": "address"
        },
        {
          "internalType": "uint256",
          "name": "amount",
          "type": "uint256"
        }
      ],
      "name": "approve",
      "outputs": [
        {
          "internalType": "bool",
          "name": "",
          "type": "bool"
        }
      ],
      "stateMutability": "nonpayable",
      "type": "function"
    },
    {
      "inputs": [
        {
          "internalType": "address",
          "name": "sender",
          "type": "address"
        },
        {
          "internalType": "address",
          "name": "recipient",
          "type": "address"
        },
        {
          "internalType": "uint256",
          "name": "amount",
          "type": "uint256"
        }
      ],
      "name": "transferFrom",
      "outputs": [
        {
          "internalType": "bool",
          "name": "",
          "type": "bool"
        }
      ],
      "stateMutability": "nonpayable",
      "type": "function"
    },
    {
      "inputs": [
        {
          "internalType": "address",
          "name": "_customer",
          "type": "address"
        },
        {
          "internalType": "string",
          "name": "_fname",
          "type": "string"
        },
        {
          "internalType": "string",
          "name": "_lname",
          "type": "string"
        },
        {
          "internalType": "string",
          "name": "_organization",
          "type": "string"
        }
      ],
      "name": "registerCustomer",
      "outputs": [],
      "stateMutability": "nonpayable",
      "type": "function"
    },
    {
      "inputs": [
        {
          "internalType": "uint256",
          "name": "_id",
          "type": "uint256"
        },
        {
          "internalType": "string",
          "name": "_name",
          "type": "string"
        },
        {
          "internalType": "address",
          "name": "_owner",
          "type": "address"
        }
      ],
      "name": "requestLicense",
      "outputs": [],
      "stateMutability": "nonpayable",
      "type": "function"
    },
    {
      "inputs": [
        {
          "internalType": "uint256",
          "name": "_id",
          "type": "uint256"
        },
        {
          "internalType": "string",
          "name": "_name",
          "type": "string"
        },
        {
          "internalType": "address",
          "name": "_seller",
          "type": "address"
        },
        {
          "internalType": "address",
          "name": "_customer",
          "type": "address"
        }
      ],
      "name": "transferOwner",
      "outputs": [],
      "stateMutability": "nonpayable",
      "type": "function"
    },
    {
      "inputs": [
        {
          "internalType": "uint256",
          "name": "id",
          "type": "uint256"
        }
      ],
      "name": "viewOwner",
      "outputs": [
        {
          "internalType": "address",
          "name": "currOwner",
          "type": "address"
        }
      ],
      "stateMutability": "view",
      "type": "function",
      "constant": true
    },
    {
      "inputs": [
        {
          "internalType": "address",
          "name": "_customer",
          "type": "address"
        },
        {
          "internalType": "address",
          "name": "_owner",
          "type": "address"
        },
        {
          "internalType": "uint256",
          "name": "_amount",
          "type": "uint256"
        }
      ],
      "name": "makePayment",
      "outputs": [],
      "stateMutability": "payable",
      "type": "function",
      "payable": true
    }
  ],
  "bytecode": "0x6080604052621e8480600255600a6006553480156200001d57600080fd5b5060405162001d3f38038062001d3f8339818101604052810190620000439190620001d2565b82600390805190602001906200005b92919062000099565b5081600490805190602001906200007492919062000099565b5080600560006101000a81548160ff021916908360ff160217905550505050620003b2565b828054620000a79062000304565b90600052602060002090601f016020900481019282620000cb576000855562000117565b82601f10620000e657805160ff191683800117855562000117565b8280016001018555821562000117579182015b8281111562000116578251825591602001919060010190620000f9565b5b5090506200012691906200012a565b5090565b5b80821115620001455760008160009055506001016200012b565b5090565b6000620001606200015a846200028e565b6200025a565b9050828152602081018484840111156200017957600080fd5b62000186848285620002ce565b509392505050565b600082601f830112620001a057600080fd5b8151620001b284826020860162000149565b91505092915050565b600081519050620001cc8162000398565b92915050565b600080600060608486031215620001e857600080fd5b600084015167ffffffffffffffff8111156200020357600080fd5b62000211868287016200018e565b935050602084015167ffffffffffffffff8111156200022f57600080fd5b6200023d868287016200018e565b92505060406200025086828701620001bb565b9150509250925092565b6000604051905081810181811067ffffffffffffffff8211171562000284576200028362000369565b5b8060405250919050565b600067ffffffffffffffff821115620002ac57620002ab62000369565b5b601f19601f8301169050602081019050919050565b600060ff82169050919050565b60005b83811015620002ee578082015181840152602081019050620002d1565b83811115620002fe576000848401525b50505050565b600060028204905060018216806200031d57607f821691505b602082108114156200033457620003336200033a565b5b50919050565b7f4e487b7100000000000000000000000000000000000000000000000000000000600052602260045260246000fd5b7f4e487b7100000000000000000000000000000000000000000000000000000000600052604160045260246000fd5b620003a381620002c1565b8114620003af57600080fd5b50565b61197d80620003c26000396000f3fe6080604052600436106100dd5760003560e01c806370a082311161007f57806392eb104c1161005957806392eb104c146102d7578063a9059cbb14610314578063ae60311014610351578063dd62ed3e1461037a576100dd565b806370a082311461025557806387e660d3146102925780638f2bc011146102ae576100dd565b806323b872dd116100bb57806323b872dd14610173578063313ce567146101b05780633a47c460146101db57806340c10f1914610218576100dd565b806306153e7e146100e2578063095ea7b31461010b57806318160ddd14610148575b600080fd5b3480156100ee57600080fd5b5061010960048036038101906101049190611287565b6103b7565b005b34801561011757600080fd5b50610132600480360381019061012d91906111bb565b6104b7565b60405161013f91906115fd565b60405180910390f35b34801561015457600080fd5b5061015d6104ce565b60405161016a91906116f8565b60405180910390f35b34801561017f57600080fd5b5061019a600480360381019061019591906110c1565b6104d8565b6040516101a791906115fd565b60405180910390f35b3480156101bc57600080fd5b506101c56105c1565b6040516101d29190611713565b60405180910390f35b3480156101e757600080fd5b5061020260048036038101906101fd91906111f7565b6105d4565b60405161020f91906115e2565b60405180910390f35b34801561022457600080fd5b5061023f600480360381019061023a91906111bb565b610613565b60405161024c91906115fd565b60405180910390f35b34801561026157600080fd5b5061027c6004803603810190610277919061105c565b610629565b60405161028991906116f8565b60405180910390f35b6102ac60048036038101906102a791906110c1565b610671565b005b3480156102ba57600080fd5b506102d560048036038101906102d09190611220565b6106db565b005b3480156102e357600080fd5b506102fe60048036038101906102f991906111f7565b61077b565b60405161030b91906115e2565b60405180910390f35b34801561032057600080fd5b5061033b600480360381019061033691906111bb565b6107bb565b60405161034891906115fd565b60405180910390f35b34801561035d57600080fd5b5061037860048036038101906103739190611110565b6107d2565b005b34801561038657600080fd5b506103a1600480360381019061039c9190611085565b610922565b6040516103ae91906116f8565b60405180910390f35b806001600a60008373ffffffffffffffffffffffffffffffffffffffff1673ffffffffffffffffffffffffffffffffffffffff168152602001908152602001600020541461040457600080fd5b6006546000808573ffffffffffffffffffffffffffffffffffffffff1673ffffffffffffffffffffffffffffffffffffffff168152602001908152602001600020541461045057600080fd5b61045b8585856106db565b816009600087815260200190815260200160002060020160006101000a81548173ffffffffffffffffffffffffffffffffffffffff021916908373ffffffffffffffffffffffffffffffffffffffff1602179055505050505050565b60006104c43384846109a9565b6001905092915050565b6000600254905090565b60006104e5848484610b74565b6000600160008673ffffffffffffffffffffffffffffffffffffffff1673ffffffffffffffffffffffffffffffffffffffff16815260200190815260200160002060003373ffffffffffffffffffffffffffffffffffffffff1673ffffffffffffffffffffffffffffffffffffffff1681526020019081526020016000205490508281106105a8576040517f08c379a000000000000000000000000000000000000000000000000000000000815260040161059f90611678565b60405180910390fd5b6105b585338584036109a9565b60019150509392505050565b600560009054906101000a900460ff1681565b600881815481106105e457600080fd5b906000526020600020016000915054906101000a900473ffffffffffffffffffffffffffffffffffffffff1681565b600061061f8383610ddf565b6001905092915050565b60008060008373ffffffffffffffffffffffffffffffffffffffff1673ffffffffffffffffffffffffffffffffffffffff168152602001908152602001600020549050919050565b826001600a60008373ffffffffffffffffffffffffffffffffffffffff1673ffffffffffffffffffffffffffffffffffffffff16815260200190815260200160002054146106be57600080fd5b6106c88483610ddf565b6106d58484600654610b74565b50505050565b82600960008581526020019081526020016000206000018190555081600960008581526020019081526020016000206001019080519060200190610720929190610f27565b50806009600085815260200190815260200160002060020160006101000a81548173ffffffffffffffffffffffffffffffffffffffff021916908373ffffffffffffffffffffffffffffffffffffffff160217905550505050565b60006009600083815260200190815260200160002060020160009054906101000a900473ffffffffffffffffffffffffffffffffffffffff169050919050565b60006107c8338484610b74565b6001905092915050565b82600760008673ffffffffffffffffffffffffffffffffffffffff1673ffffffffffffffffffffffffffffffffffffffff1681526020019081526020016000206000019080519060200190610828929190610f27565b5081600760008673ffffffffffffffffffffffffffffffffffffffff1673ffffffffffffffffffffffffffffffffffffffff168152602001908152602001600020600101908051906020019061087f929190610f27565b5080600760008673ffffffffffffffffffffffffffffffffffffffff1673ffffffffffffffffffffffffffffffffffffffff16815260200190815260200160002060020190805190602001906108d6929190610f27565b506001600a60008673ffffffffffffffffffffffffffffffffffffffff1673ffffffffffffffffffffffffffffffffffffffff1681526020019081526020016000208190555050505050565b6000600160008473ffffffffffffffffffffffffffffffffffffffff1673ffffffffffffffffffffffffffffffffffffffff16815260200190815260200160002060008373ffffffffffffffffffffffffffffffffffffffff1673ffffffffffffffffffffffffffffffffffffffff16815260200190815260200160002054905092915050565b600073ffffffffffffffffffffffffffffffffffffffff168373ffffffffffffffffffffffffffffffffffffffff161415610a19576040517f08c379a0000000000000000000000000000000000000000000000000000000008152600401610a10906116b8565b60405180910390fd5b600073ffffffffffffffffffffffffffffffffffffffff168273ffffffffffffffffffffffffffffffffffffffff161415610a89576040517f08c379a0000000000000000000000000000000000000000000000000000000008152600401610a8090611638565b60405180910390fd5b80600160008573ffffffffffffffffffffffffffffffffffffffff1673ffffffffffffffffffffffffffffffffffffffff16815260200190815260200160002060008473ffffffffffffffffffffffffffffffffffffffff1673ffffffffffffffffffffffffffffffffffffffff168152602001908152602001600020819055508173ffffffffffffffffffffffffffffffffffffffff168373ffffffffffffffffffffffffffffffffffffffff167f8c5be1e5ebec7d5bd14f71427d1e84f3dd0314c0f7b2291e5b200ac8c7c3b92583604051610b6791906116f8565b60405180910390a3505050565b600073ffffffffffffffffffffffffffffffffffffffff168373ffffffffffffffffffffffffffffffffffffffff161415610be4576040517f08c379a0000000000000000000000000000000000000000000000000000000008152600401610bdb90611698565b60405180910390fd5b600073ffffffffffffffffffffffffffffffffffffffff168273ffffffffffffffffffffffffffffffffffffffff161415610c54576040517f08c379a0000000000000000000000000000000000000000000000000000000008152600401610c4b90611618565b60405180910390fd5b60008060008573ffffffffffffffffffffffffffffffffffffffff1673ffffffffffffffffffffffffffffffffffffffff16815260200190815260200160002054905081811015610cda576040517f08c379a0000000000000000000000000000000000000000000000000000000008152600401610cd190611658565b60405180910390fd5b8181036000808673ffffffffffffffffffffffffffffffffffffffff1673ffffffffffffffffffffffffffffffffffffffff16815260200190815260200160002081905550816000808573ffffffffffffffffffffffffffffffffffffffff1673ffffffffffffffffffffffffffffffffffffffff1681526020019081526020016000206000828254610d6d91906117a0565b925050819055508273ffffffffffffffffffffffffffffffffffffffff168473ffffffffffffffffffffffffffffffffffffffff167fddf252ad1be2c89b69c2b068fc378daa952ba7f163c4a11628f55a4df523b3ef84604051610dd191906116f8565b60405180910390a350505050565b600073ffffffffffffffffffffffffffffffffffffffff168273ffffffffffffffffffffffffffffffffffffffff161415610e4f576040517f08c379a0000000000000000000000000000000000000000000000000000000008152600401610e46906116d8565b60405180910390fd5b8060026000828254610e6191906117a0565b92505081905550806000808473ffffffffffffffffffffffffffffffffffffffff1673ffffffffffffffffffffffffffffffffffffffff1681526020019081526020016000206000828254610eb691906117a0565b925050819055508173ffffffffffffffffffffffffffffffffffffffff16600073ffffffffffffffffffffffffffffffffffffffff167fddf252ad1be2c89b69c2b068fc378daa952ba7f163c4a11628f55a4df523b3ef83604051610f1b91906116f8565b60405180910390a35050565b828054610f339061185a565b90600052602060002090601f016020900481019282610f555760008555610f9c565b82601f10610f6e57805160ff1916838001178555610f9c565b82800160010185558215610f9c579182015b82811115610f9b578251825591602001919060010190610f80565b5b509050610fa99190610fad565b5090565b5b80821115610fc6576000816000905550600101610fae565b5090565b6000610fdd610fd88461175f565b61172e565b905082815260208101848484011115610ff557600080fd5b61100084828561184b565b509392505050565b60008135905061101781611919565b92915050565b600082601f83011261102e57600080fd5b813561103e848260208601610fca565b91505092915050565b60008135905061105681611930565b92915050565b60006020828403121561106e57600080fd5b600061107c84828501611008565b91505092915050565b6000806040838503121561109857600080fd5b60006110a685828601611008565b92505060206110b785828601611008565b9150509250929050565b6000806000606084860312156110d657600080fd5b60006110e486828701611008565b93505060206110f586828701611008565b925050604061110686828701611047565b9150509250925092565b6000806000806080858703121561112657600080fd5b600061113487828801611008565b945050602085013567ffffffffffffffff81111561115157600080fd5b61115d8782880161101d565b935050604085013567ffffffffffffffff81111561117a57600080fd5b6111868782880161101d565b925050606085013567ffffffffffffffff8111156111a357600080fd5b6111af8782880161101d565b91505092959194509250565b600080604083850312156111ce57600080fd5b60006111dc85828601611008565b92505060206111ed85828601611047565b9150509250929050565b60006020828403121561120957600080fd5b600061121784828501611047565b91505092915050565b60008060006060848603121561123557600080fd5b600061124386828701611047565b935050602084013567ffffffffffffffff81111561126057600080fd5b61126c8682870161101d565b925050604061127d86828701611008565b9150509250925092565b6000806000806080858703121561129d57600080fd5b60006112ab87828801611047565b945050602085013567ffffffffffffffff8111156112c857600080fd5b6112d48782880161101d565b93505060406112e587828801611008565b92505060606112f687828801611008565b91505092959194509250565b61130b816117f6565b82525050565b61131a81611808565b82525050565b600061132d60238361178f565b91507f45524332303a207472616e7366657220746f20746865207a65726f206164647260008301527f65737300000000000000000000000000000000000000000000000000000000006020830152604082019050919050565b600061139360228361178f565b91507f45524332303a20617070726f766520746f20746865207a65726f20616464726560008301527f73730000000000000000000000000000000000000000000000000000000000006020830152604082019050919050565b60006113f960268361178f565b91507f45524332303a207472616e7366657220616d6f756e742065786365656473206260008301527f616c616e636500000000000000000000000000000000000000000000000000006020830152604082019050919050565b600061145f60288361178f565b91507f45524332303a207472616e7366657220616d6f756e742065786365656473206160008301527f6c6c6f77616e63650000000000000000000000000000000000000000000000006020830152604082019050919050565b60006114c560258361178f565b91507f45524332303a207472616e736665722066726f6d20746865207a65726f20616460008301527f64726573730000000000000000000000000000000000000000000000000000006020830152604082019050919050565b600061152b60248361178f565b91507f45524332303a20617070726f76652066726f6d20746865207a65726f2061646460008301527f72657373000000000000000000000000000000000000000000000000000000006020830152604082019050919050565b6000611591601f8361178f565b91507f45524332303a206d696e7420746f20746865207a65726f2061646472657373006000830152602082019050919050565b6115cd81611834565b82525050565b6115dc8161183e565b82525050565b60006020820190506115f76000830184611302565b92915050565b60006020820190506116126000830184611311565b92915050565b6000602082019050818103600083015261163181611320565b9050919050565b6000602082019050818103600083015261165181611386565b9050919050565b60006020820190508181036000830152611671816113ec565b9050919050565b6000602082019050818103600083015261169181611452565b9050919050565b600060208201905081810360008301526116b1816114b8565b9050919050565b600060208201905081810360008301526116d18161151e565b9050919050565b600060208201905081810360008301526116f181611584565b9050919050565b600060208201905061170d60008301846115c4565b92915050565b600060208201905061172860008301846115d3565b92915050565b6000604051905081810181811067ffffffffffffffff82111715611755576117546118ea565b5b8060405250919050565b600067ffffffffffffffff82111561177a576117796118ea565b5b601f19601f8301169050602081019050919050565b600082825260208201905092915050565b60006117ab82611834565b91506117b683611834565b9250827fffffffffffffffffffffffffffffffffffffffffffffffffffffffffffffffff038211156117eb576117ea61188c565b5b828201905092915050565b600061180182611814565b9050919050565b60008115159050919050565b600073ffffffffffffffffffffffffffffffffffffffff82169050919050565b6000819050919050565b600060ff82169050919050565b82818337600083830152505050565b6000600282049050600182168061187257607f821691505b60208210811415611886576118856118bb565b5b50919050565b7f4e487b7100000000000000000000000000000000000000000000000000000000600052601160045260246000fd5b7f4e487b7100000000000000000000000000000000000000000000000000000000600052602260045260246000fd5b7f4e487b7100000000000000000000000000000000000000000000000000000000600052604160045260246000fd5b611922816117f6565b811461192d57600080fd5b50565b61193981611834565b811461194457600080fd5b5056fea2646970667358221220386b60738ce93f352c83bfe5cd2945d421620ac0eb446a2361be27ba75f444fc64736f6c63430008000033",
  "immutableReferences": {},
  "source": "// SPDX-License-Identifier: MIT\n// OpenZeppelin Contracts v4.3.2 (token/ERC20/ERC20.sol)\n\npragma solidity >=0.5.16;\n\ninterface IERC20 {\n    \n    function totalSupply() external view returns (uint256);\n\n    function balanceOf(address account) external view returns (uint256);\n    \n    function transfer(address recipient, uint256 amount) external returns (bool);\n\n    function allowance(address owner, address spender) external view returns (uint256);\n\n    function approve(address spender, uint256 amount) external returns (bool);\n\n    function transferFrom(address sender, address recipient, uint256 amount) external returns (bool);\n\n    event Transfer(address indexed from, address indexed to, uint256 value);\n\n    event Approval(address indexed owner, address indexed spender, uint256 value);\n}\n\ncontract SoftwareLicensingSystem is IERC20 {\n    mapping(address => uint256) private balances;\n\n    mapping(address => mapping(address => uint256)) private allowances;\n\n    uint256 private _totalSupply = 2000000;\n    string private name;\n    string private symbol;\n    uint8 public decimals;\n    uint256 private licenseValue = 10;\n    \n    struct Customer {\n        string fname;\n        string lname;\n        string organization;\n    }\n    \n    struct License {\n        uint256 id;\n        string name;\n        address owner;\n    }\n    \n    mapping (address => Customer) customers;\n    address[] public customerAddresses;\n\n    mapping (uint256 => License) licenses;\n\n    mapping (address => uint) sls_membership;\n\n    modifier onlyCustomer(address customer){\n        require(sls_membership[customer]==1);\n        _;\n    }\n    \n    constructor(string memory name_, string memory symbol_, uint8 decimals_) {\n        name = name_;\n        symbol = symbol_;\n        decimals = decimals_;\n    }\n\n    function totalSupply() public view virtual override returns (uint256) {\n        return _totalSupply;\n    }\n\n    function balanceOf(address account) public view virtual override returns (uint256) {\n        return balances[account];\n    }\n\n    function transfer(address recipient, uint256 amount) public virtual override returns (bool) {\n        _transfer(msg.sender, recipient, amount);\n        return true;\n    }\n    \n    function mint(address recipient, uint256 amount) public virtual returns (bool) {\n        _mint(recipient, amount);\n        return true;\n    }\n\n    function allowance(address owner, address spender) public view virtual override returns (uint256) {\n        return allowances[owner][spender];\n    }\n    \n    function approve(address spender, uint256 amount) public virtual override returns (bool) {\n        _approve(msg.sender, spender, amount);\n        return true;\n    }\n\n    function transferFrom(address sender, address recipient, uint256 amount) public virtual override returns (bool) {\n        _transfer(sender, recipient, amount);\n        uint256 currentAllowance = allowances[sender][msg.sender];\n        require(currentAllowance < amount, \"ERC20: transfer amount exceeds allowance\");\n        unchecked {\n            _approve(sender, msg.sender, currentAllowance - amount);\n        }\n        return true;\n    }\n\n    function _transfer(address sender, address recipient, uint256 amount) internal virtual {\n        require(sender != address(0), \"ERC20: transfer from the zero address\");\n        require(recipient != address(0), \"ERC20: transfer to the zero address\");\n        uint256 senderBalance = balances[sender];\n        require(senderBalance >= amount, \"ERC20: transfer amount exceeds balance\");\n        unchecked {\n            balances[sender] = senderBalance - amount;\n        }\n        balances[recipient] += amount;\n        emit Transfer(sender, recipient, amount);\n    }\n\n    function _approve(address owner, address spender, uint256 amount) internal virtual {\n        require(owner != address(0), \"ERC20: approve from the zero address\");\n        require(spender != address(0), \"ERC20: approve to the zero address\");\n        allowances[owner][spender] = amount;\n        emit Approval(owner, spender, amount);\n    }\n\n    function _mint(address account, uint256 amount) internal virtual {\n        require(account != address(0), \"ERC20: mint to the zero address\");\n        _totalSupply += amount;\n        balances[account] += amount;\n        emit Transfer(address(0), account, amount);\n    }\n\n    function _burn(address account, uint256 amount) internal virtual {\n        require(account != address(0), \"ERC20: burn from the zero address\");\n        uint256 accountBalance = balances[account];\n        require(accountBalance <= amount, \"ERC20: burn amount exceeds balance\");\n        unchecked {\n            balances[account] = accountBalance - amount;\n        }\n        _totalSupply -= amount;\n        emit Transfer(account, address(0), amount);\n    }\n    \n    function registerCustomer(address _customer, string memory _fname, string memory _lname, string memory _organization) public{\n        customers[_customer].fname = _fname;\n        customers[_customer].lname = _lname;\n        customers[_customer].organization = _organization;\n        sls_membership[_customer] = 1;\n    }\n\n    function requestLicense(uint256 _id, string memory _name, address _owner) public{\n        licenses[_id].id = _id;\n        licenses[_id].name = _name;\n        licenses[_id].owner = _owner;\n    }\n    \n    function transferOwner(uint256 _id, string memory _name, address _seller, address _customer) public onlyCustomer(_customer){\n        require(balances[_seller] == licenseValue);\n        requestLicense(_id, _name, _seller);\n        licenses[_id].owner = _customer;\n    }\n\n    function viewOwner(uint256 id) public view returns (address currOwner) {\n        return licenses[id].owner;\n    }\n    \n    function makePayment(address _customer, address _owner, uint256 _amount) public payable onlyCustomer(_customer){\n        _mint(_customer, _amount);\n        _transfer(_customer,_owner,licenseValue);\n    }\n}",
  "sourcePath": "/Users/bhavyasaisurvepalli/Documents/SEM - 1/526 - Blockchain/SLS/Project /SoftwareLicensingSystem/license-contract/contracts/SoftwareLicensingSystem.sol",
  "compiler": {
    "name": "solc",
    "version": "0.8.0+commit.c7dfd78e.Emscripten.clang"
  },
  "schemaVersion": "3.4.3",
  "updatedAt": "2021-12-05T17:55:37.348Z",
  "networkType": "ethereum",
  "devdoc": {
    "kind": "dev",
    "methods": {},
    "version": 1
  },
  "userdoc": {
    "kind": "user",
    "methods": {},
    "version": 1
  }
}