{
  "contractName": "SoftwareLicensingSystem",
  "abi": [
    {
      "inputs": [
        {
          "internalType": "string",
          "name": "name_",
          "type": "string"
        },
        {
          "internalType": "string",
          "name": "symbol_",
          "type": "string"
        },
        {
          "internalType": "uint8",
          "name": "decimals_",
          "type": "uint8"
        }
      ],
      "stateMutability": "nonpayable",
      "type": "constructor"
    },
    {
      "anonymous": false,
      "inputs": [
        {
          "indexed": true,
          "internalType": "address",
          "name": "owner",
          "type": "address"
        },
        {
          "indexed": true,
          "internalType": "address",
          "name": "spender",
          "type": "address"
        },
        {
          "indexed": false,
          "internalType": "uint256",
          "name": "value",
          "type": "uint256"
        }
      ],
      "name": "Approval",
      "type": "event"
    },
    {
      "anonymous": false,
      "inputs": [
        {
          "indexed": true,
          "internalType": "address",
          "name": "from",
          "type": "address"
        },
        {
          "indexed": true,
          "internalType": "address",
          "name": "to",
          "type": "address"
        },
        {
          "indexed": false,
          "internalType": "uint256",
          "name": "value",
          "type": "uint256"
        }
      ],
      "name": "Transfer",
      "type": "event"
    },
    {
      "inputs": [
        {
          "internalType": "uint256",
          "name": "",
          "type": "uint256"
        }
      ],
      "name": "customerAddresses",
      "outputs": [
        {
          "internalType": "address",
          "name": "",
          "type": "address"
        }
      ],
      "stateMutability": "view",
      "type": "function",
      "constant": true
    },
    {
      "inputs": [],
      "name": "decimals",
      "outputs": [
        {
          "internalType": "uint8",
          "name": "",
          "type": "uint8"
        }
      ],
      "stateMutability": "view",
      "type": "function",
      "constant": true
    },
    {
      "inputs": [],
      "name": "totalSupply",
      "outputs": [
        {
          "internalType": "uint256",
          "name": "",
          "type": "uint256"
        }
      ],
      "stateMutability": "view",
      "type": "function",
      "constant": true
    },
    {
      "inputs": [
        {
          "internalType": "address",
          "name": "account",
          "type": "address"
        }
      ],
      "name": "balanceOf",
      "outputs": [
        {
          "internalType": "uint256",
          "name": "",
          "type": "uint256"
        }
      ],
      "stateMutability": "view",
      "type": "function",
      "constant": true
    },
    {
      "inputs": [
        {
          "internalType": "address",
          "name": "recipient",
          "type": "address"
        },
        {
          "internalType": "uint256",
          "name": "amount",
          "type": "uint256"
        }
      ],
      "name": "transfer",
      "outputs": [
        {
          "internalType": "bool",
          "name": "",
          "type": "bool"
        }
      ],
      "stateMutability": "nonpayable",
      "type": "function"
    },
    {
      "inputs": [
        {
          "internalType": "address",
          "name": "owner",
          "type": "address"
        },
        {
          "internalType": "address",
          "name": "spender",
          "type": "address"
        }
      ],
      "name": "allowance",
      "outputs": [
        {
          "internalType": "uint256",
          "name": "",
          "type": "uint256"
        }
      ],
      "stateMutability": "view",
      "type": "function",
      "constant": true
    },
    {
      "inputs": [
        {
          "internalType": "address",
          "name": "spender",
          "type": "address"
        },
        {
          "internalType": "uint256",
          "name": "amount",
          "type": "uint256"
        }
      ],
      "name": "approve",
      "outputs": [
        {
          "internalType": "bool",
          "name": "",
          "type": "bool"
        }
      ],
      "stateMutability": "nonpayable",
      "type": "function"
    },
    {
      "inputs": [
        {
          "internalType": "address",
          "name": "sender",
          "type": "address"
        },
        {
          "internalType": "address",
          "name": "recipient",
          "type": "address"
        },
        {
          "internalType": "uint256",
          "name": "amount",
          "type": "uint256"
        }
      ],
      "name": "transferFrom",
      "outputs": [
        {
          "internalType": "bool",
          "name": "",
          "type": "bool"
        }
      ],
      "stateMutability": "nonpayable",
      "type": "function"
    },
    {
      "inputs": [
        {
          "internalType": "address",
          "name": "_customer",
          "type": "address"
        },
        {
          "internalType": "string",
          "name": "_fname",
          "type": "string"
        },
        {
          "internalType": "string",
          "name": "_lname",
          "type": "string"
        },
        {
          "internalType": "string",
          "name": "_organization",
          "type": "string"
        }
      ],
      "name": "registerCustomer",
      "outputs": [],
      "stateMutability": "nonpayable",
      "type": "function"
    },
    {
      "inputs": [
        {
          "internalType": "uint256",
          "name": "_id",
          "type": "uint256"
        },
        {
          "internalType": "string",
          "name": "_name",
          "type": "string"
        },
        {
          "internalType": "address",
          "name": "_owner",
          "type": "address"
        }
      ],
      "name": "requestLicense",
      "outputs": [],
      "stateMutability": "nonpayable",
      "type": "function"
    },
    {
      "inputs": [
        {
          "internalType": "address",
          "name": "_address",
          "type": "address"
        }
      ],
      "name": "getCustomer",
      "outputs": [
        {
          "internalType": "string",
          "name": "",
          "type": "string"
        },
        {
          "internalType": "string",
          "name": "",
          "type": "string"
        },
        {
          "internalType": "string",
          "name": "",
          "type": "string"
        }
      ],
      "stateMutability": "view",
      "type": "function",
      "constant": true
    },
    {
      "inputs": [
        {
          "internalType": "uint256",
          "name": "_id",
          "type": "uint256"
        },
        {
          "internalType": "string",
          "name": "_name",
          "type": "string"
        },
        {
          "internalType": "address",
          "name": "_seller",
          "type": "address"
        },
        {
          "internalType": "address",
          "name": "_customer",
          "type": "address"
        }
      ],
      "name": "transferOwner",
      "outputs": [],
      "stateMutability": "nonpayable",
      "type": "function"
    },
    {
      "inputs": [
        {
          "internalType": "uint256",
          "name": "id",
          "type": "uint256"
        }
      ],
      "name": "viewOwner",
      "outputs": [
        {
          "internalType": "address",
          "name": "currOwner",
          "type": "address"
        }
      ],
      "stateMutability": "view",
      "type": "function",
      "constant": true
    }
  ],
  "bytecode": "0x6080604052621e84806002553480156200001857600080fd5b5060405162001d4338038062001d4383398181016040528101906200003e9190620001cd565b82600390805190602001906200005692919062000094565b5081600490805190602001906200006f92919062000094565b5080600560006101000a81548160ff021916908360ff160217905550505050620003ad565b828054620000a290620002ff565b90600052602060002090601f016020900481019282620000c6576000855562000112565b82601f10620000e157805160ff191683800117855562000112565b8280016001018555821562000112579182015b8281111562000111578251825591602001919060010190620000f4565b5b50905062000121919062000125565b5090565b5b808211156200014057600081600090555060010162000126565b5090565b60006200015b620001558462000289565b62000255565b9050828152602081018484840111156200017457600080fd5b62000181848285620002c9565b509392505050565b600082601f8301126200019b57600080fd5b8151620001ad84826020860162000144565b91505092915050565b600081519050620001c78162000393565b92915050565b600080600060608486031215620001e357600080fd5b600084015167ffffffffffffffff811115620001fe57600080fd5b6200020c8682870162000189565b935050602084015167ffffffffffffffff8111156200022a57600080fd5b620002388682870162000189565b92505060406200024b86828701620001b6565b9150509250925092565b6000604051905081810181811067ffffffffffffffff821117156200027f576200027e62000364565b5b8060405250919050565b600067ffffffffffffffff821115620002a757620002a662000364565b5b601f19601f8301169050602081019050919050565b600060ff82169050919050565b60005b83811015620002e9578082015181840152602081019050620002cc565b83811115620002f9576000848401525b50505050565b600060028204905060018216806200031857607f821691505b602082108114156200032f576200032e62000335565b5b50919050565b7f4e487b7100000000000000000000000000000000000000000000000000000000600052602260045260246000fd5b7f4e487b7100000000000000000000000000000000000000000000000000000000600052604160045260246000fd5b6200039e81620002bc565b8114620003aa57600080fd5b50565b61198680620003bd6000396000f3fe608060405234801561001057600080fd5b50600436106100cf5760003560e01c806370a082311161008c578063a9059cbb11610066578063a9059cbb14610238578063ae60311014610268578063cb949e5114610284578063dd62ed3e146102b6576100cf565b806370a08231146101bc5780638f2bc011146101ec57806392eb104c14610208576100cf565b806306153e7e146100d4578063095ea7b3146100f057806318160ddd1461012057806323b872dd1461013e578063313ce5671461016e5780633a47c4601461018c575b600080fd5b6100ee60048036038101906100e9919061121c565b6102e6565b005b61010a60048036038101906101059190611150565b610398565b604051610117919061158b565b60405180910390f35b6101286103af565b60405161013591906116b2565b60405180910390f35b61015860048036038101906101539190611056565b6103b9565b604051610165919061158b565b60405180910390f35b6101766104a3565b60405161018391906116cd565b60405180910390f35b6101a660048036038101906101a1919061118c565b6104b6565b6040516101b39190611570565b60405180910390f35b6101d660048036038101906101d19190610ff1565b6104f5565b6040516101e391906116b2565b60405180910390f35b610206600480360381019061020191906111b5565b61053d565b005b610222600480360381019061021d919061118c565b6105dd565b60405161022f9190611570565b60405180910390f35b610252600480360381019061024d9190611150565b61061d565b60405161025f919061158b565b60405180910390f35b610282600480360381019061027d91906110a5565b610634565b005b61029e60048036038101906102999190610ff1565b610784565b6040516102ad939291906115a6565b60405180910390f35b6102d060048036038101906102cb919061101a565b610a00565b6040516102dd91906116b2565b60405180910390f35b6001600960003373ffffffffffffffffffffffffffffffffffffffff1673ffffffffffffffffffffffffffffffffffffffff168152602001908152602001600020541461033257600080fd5b61033d84848461053d565b806008600086815260200190815260200160002060020160006101000a81548173ffffffffffffffffffffffffffffffffffffffff021916908373ffffffffffffffffffffffffffffffffffffffff16021790555050505050565b60006103a5338484610a87565b6001905092915050565b6000600254905090565b60006103c6848484610c52565b6000600160008673ffffffffffffffffffffffffffffffffffffffff1673ffffffffffffffffffffffffffffffffffffffff16815260200190815260200160002060003373ffffffffffffffffffffffffffffffffffffffff1673ffffffffffffffffffffffffffffffffffffffff1681526020019081526020016000205490508281101561048a576040517f08c379a000000000000000000000000000000000000000000000000000000000815260040161048190611652565b60405180910390fd5b6104978533858403610a87565b60019150509392505050565b600560009054906101000a900460ff1681565b600781815481106104c657600080fd5b906000526020600020016000915054906101000a900473ffffffffffffffffffffffffffffffffffffffff1681565b60008060008373ffffffffffffffffffffffffffffffffffffffff1673ffffffffffffffffffffffffffffffffffffffff168152602001908152602001600020549050919050565b82600860008581526020019081526020016000206000018190555081600860008581526020019081526020016000206001019080519060200190610582929190610ebc565b50806008600085815260200190815260200160002060020160006101000a81548173ffffffffffffffffffffffffffffffffffffffff021916908373ffffffffffffffffffffffffffffffffffffffff160217905550505050565b60006008600083815260200190815260200160002060020160009054906101000a900473ffffffffffffffffffffffffffffffffffffffff169050919050565b600061062a338484610c52565b6001905092915050565b82600660008673ffffffffffffffffffffffffffffffffffffffff1673ffffffffffffffffffffffffffffffffffffffff168152602001908152602001600020600001908051906020019061068a929190610ebc565b5081600660008673ffffffffffffffffffffffffffffffffffffffff1673ffffffffffffffffffffffffffffffffffffffff16815260200190815260200160002060010190805190602001906106e1929190610ebc565b5080600660008673ffffffffffffffffffffffffffffffffffffffff1673ffffffffffffffffffffffffffffffffffffffff1681526020019081526020016000206002019080519060200190610738929190610ebc565b506001600960008673ffffffffffffffffffffffffffffffffffffffff1673ffffffffffffffffffffffffffffffffffffffff1681526020019081526020016000208190555050505050565b6060806060600660008573ffffffffffffffffffffffffffffffffffffffff1673ffffffffffffffffffffffffffffffffffffffff168152602001908152602001600020600001600660008673ffffffffffffffffffffffffffffffffffffffff1673ffffffffffffffffffffffffffffffffffffffff168152602001908152602001600020600101600660008773ffffffffffffffffffffffffffffffffffffffff1673ffffffffffffffffffffffffffffffffffffffff16815260200190815260200160002060020182805461085b90611852565b80601f016020809104026020016040519081016040528092919081815260200182805461088790611852565b80156108d45780601f106108a9576101008083540402835291602001916108d4565b820191906000526020600020905b8154815290600101906020018083116108b757829003601f168201915b505050505092508180546108e790611852565b80601f016020809104026020016040519081016040528092919081815260200182805461091390611852565b80156109605780601f1061093557610100808354040283529160200191610960565b820191906000526020600020905b81548152906001019060200180831161094357829003601f168201915b5050505050915080805461097390611852565b80601f016020809104026020016040519081016040528092919081815260200182805461099f90611852565b80156109ec5780601f106109c1576101008083540402835291602001916109ec565b820191906000526020600020905b8154815290600101906020018083116109cf57829003601f168201915b505050505090509250925092509193909250565b6000600160008473ffffffffffffffffffffffffffffffffffffffff1673ffffffffffffffffffffffffffffffffffffffff16815260200190815260200160002060008373ffffffffffffffffffffffffffffffffffffffff1673ffffffffffffffffffffffffffffffffffffffff16815260200190815260200160002054905092915050565b600073ffffffffffffffffffffffffffffffffffffffff168373ffffffffffffffffffffffffffffffffffffffff161415610af7576040517f08c379a0000000000000000000000000000000000000000000000000000000008152600401610aee90611692565b60405180910390fd5b600073ffffffffffffffffffffffffffffffffffffffff168273ffffffffffffffffffffffffffffffffffffffff161415610b67576040517f08c379a0000000000000000000000000000000000000000000000000000000008152600401610b5e90611612565b60405180910390fd5b80600160008573ffffffffffffffffffffffffffffffffffffffff1673ffffffffffffffffffffffffffffffffffffffff16815260200190815260200160002060008473ffffffffffffffffffffffffffffffffffffffff1673ffffffffffffffffffffffffffffffffffffffff168152602001908152602001600020819055508173ffffffffffffffffffffffffffffffffffffffff168373ffffffffffffffffffffffffffffffffffffffff167f8c5be1e5ebec7d5bd14f71427d1e84f3dd0314c0f7b2291e5b200ac8c7c3b92583604051610c4591906116b2565b60405180910390a3505050565b600073ffffffffffffffffffffffffffffffffffffffff168373ffffffffffffffffffffffffffffffffffffffff161415610cc2576040517f08c379a0000000000000000000000000000000000000000000000000000000008152600401610cb990611672565b60405180910390fd5b600073ffffffffffffffffffffffffffffffffffffffff168273ffffffffffffffffffffffffffffffffffffffff161415610d32576040517f08c379a0000000000000000000000000000000000000000000000000000000008152600401610d29906115f2565b60405180910390fd5b60008060003373ffffffffffffffffffffffffffffffffffffffff1673ffffffffffffffffffffffffffffffffffffffff168152602001908152602001600020549050818110610db7576040517f08c379a0000000000000000000000000000000000000000000000000000000008152600401610dae90611632565b60405180910390fd5b8181036000808673ffffffffffffffffffffffffffffffffffffffff1673ffffffffffffffffffffffffffffffffffffffff16815260200190815260200160002081905550816000808573ffffffffffffffffffffffffffffffffffffffff1673ffffffffffffffffffffffffffffffffffffffff1681526020019081526020016000206000828254610e4a9190611765565b925050819055508273ffffffffffffffffffffffffffffffffffffffff168473ffffffffffffffffffffffffffffffffffffffff167fddf252ad1be2c89b69c2b068fc378daa952ba7f163c4a11628f55a4df523b3ef84604051610eae91906116b2565b60405180910390a350505050565b828054610ec890611852565b90600052602060002090601f016020900481019282610eea5760008555610f31565b82601f10610f0357805160ff1916838001178555610f31565b82800160010185558215610f31579182015b82811115610f30578251825591602001919060010190610f15565b5b509050610f3e9190610f42565b5090565b5b80821115610f5b576000816000905550600101610f43565b5090565b6000610f72610f6d84611719565b6116e8565b905082815260208101848484011115610f8a57600080fd5b610f95848285611810565b509392505050565b600081359050610fac81611922565b92915050565b600082601f830112610fc357600080fd5b8135610fd3848260208601610f5f565b91505092915050565b600081359050610feb81611939565b92915050565b60006020828403121561100357600080fd5b600061101184828501610f9d565b91505092915050565b6000806040838503121561102d57600080fd5b600061103b85828601610f9d565b925050602061104c85828601610f9d565b9150509250929050565b60008060006060848603121561106b57600080fd5b600061107986828701610f9d565b935050602061108a86828701610f9d565b925050604061109b86828701610fdc565b9150509250925092565b600080600080608085870312156110bb57600080fd5b60006110c987828801610f9d565b945050602085013567ffffffffffffffff8111156110e657600080fd5b6110f287828801610fb2565b935050604085013567ffffffffffffffff81111561110f57600080fd5b61111b87828801610fb2565b925050606085013567ffffffffffffffff81111561113857600080fd5b61114487828801610fb2565b91505092959194509250565b6000806040838503121561116357600080fd5b600061117185828601610f9d565b925050602061118285828601610fdc565b9150509250929050565b60006020828403121561119e57600080fd5b60006111ac84828501610fdc565b91505092915050565b6000806000606084860312156111ca57600080fd5b60006111d886828701610fdc565b935050602084013567ffffffffffffffff8111156111f557600080fd5b61120186828701610fb2565b925050604061121286828701610f9d565b9150509250925092565b6000806000806080858703121561123257600080fd5b600061124087828801610fdc565b945050602085013567ffffffffffffffff81111561125d57600080fd5b61126987828801610fb2565b935050604061127a87828801610f9d565b925050606061128b87828801610f9d565b91505092959194509250565b6112a0816117bb565b82525050565b6112af816117cd565b82525050565b60006112c082611749565b6112ca8185611754565b93506112da81856020860161181f565b6112e381611911565b840191505092915050565b60006112fb602383611754565b91507f45524332303a207472616e7366657220746f20746865207a65726f206164647260008301527f65737300000000000000000000000000000000000000000000000000000000006020830152604082019050919050565b6000611361602283611754565b91507f45524332303a20617070726f766520746f20746865207a65726f20616464726560008301527f73730000000000000000000000000000000000000000000000000000000000006020830152604082019050919050565b60006113c7602683611754565b91507f45524332303a207472616e7366657220616d6f756e742065786365656473206260008301527f616c616e636500000000000000000000000000000000000000000000000000006020830152604082019050919050565b600061142d602883611754565b91507f45524332303a207472616e7366657220616d6f756e742065786365656473206160008301527f6c6c6f77616e63650000000000000000000000000000000000000000000000006020830152604082019050919050565b6000611493602583611754565b91507f45524332303a207472616e736665722066726f6d20746865207a65726f20616460008301527f64726573730000000000000000000000000000000000000000000000000000006020830152604082019050919050565b60006114f9602483611754565b91507f45524332303a20617070726f76652066726f6d20746865207a65726f2061646460008301527f72657373000000000000000000000000000000000000000000000000000000006020830152604082019050919050565b61155b816117f9565b82525050565b61156a81611803565b82525050565b60006020820190506115856000830184611297565b92915050565b60006020820190506115a060008301846112a6565b92915050565b600060608201905081810360008301526115c081866112b5565b905081810360208301526115d481856112b5565b905081810360408301526115e881846112b5565b9050949350505050565b6000602082019050818103600083015261160b816112ee565b9050919050565b6000602082019050818103600083015261162b81611354565b9050919050565b6000602082019050818103600083015261164b816113ba565b9050919050565b6000602082019050818103600083015261166b81611420565b9050919050565b6000602082019050818103600083015261168b81611486565b9050919050565b600060208201905081810360008301526116ab816114ec565b9050919050565b60006020820190506116c76000830184611552565b92915050565b60006020820190506116e26000830184611561565b92915050565b6000604051905081810181811067ffffffffffffffff8211171561170f5761170e6118e2565b5b8060405250919050565b600067ffffffffffffffff821115611734576117336118e2565b5b601f19601f8301169050602081019050919050565b600081519050919050565b600082825260208201905092915050565b6000611770826117f9565b915061177b836117f9565b9250827fffffffffffffffffffffffffffffffffffffffffffffffffffffffffffffffff038211156117b0576117af611884565b5b828201905092915050565b60006117c6826117d9565b9050919050565b60008115159050919050565b600073ffffffffffffffffffffffffffffffffffffffff82169050919050565b6000819050919050565b600060ff82169050919050565b82818337600083830152505050565b60005b8381101561183d578082015181840152602081019050611822565b8381111561184c576000848401525b50505050565b6000600282049050600182168061186a57607f821691505b6020821081141561187e5761187d6118b3565b5b50919050565b7f4e487b7100000000000000000000000000000000000000000000000000000000600052601160045260246000fd5b7f4e487b7100000000000000000000000000000000000000000000000000000000600052602260045260246000fd5b7f4e487b7100000000000000000000000000000000000000000000000000000000600052604160045260246000fd5b6000601f19601f8301169050919050565b61192b816117bb565b811461193657600080fd5b50565b611942816117f9565b811461194d57600080fd5b5056fea26469706673582212203dbd4985484d7b0c0da1121b61a9658225af4be4f0e6b3fb515febe538590f9a64736f6c63430008000033",
  "immutableReferences": {},
  "source": "// SPDX-License-Identifier: MIT\n// OpenZeppelin Contracts v4.3.2 (token/ERC20/ERC20.sol)\n\npragma solidity >=0.5.16;\n\ninterface IERC20 {\n    \n    function totalSupply() external view returns (uint256);\n\n    function balanceOf(address account) external view returns (uint256);\n    \n    function transfer(address recipient, uint256 amount) external returns (bool);\n\n    function allowance(address owner, address spender) external view returns (uint256);\n\n    function approve(address spender, uint256 amount) external returns (bool);\n\n    function transferFrom(address sender, address recipient, uint256 amount) external returns (bool);\n\n    event Transfer(address indexed from, address indexed to, uint256 value);\n\n    event Approval(address indexed owner, address indexed spender, uint256 value);\n}\n\ncontract SoftwareLicensingSystem is IERC20 {\n    mapping(address => uint256) private balances;\n\n    mapping(address => mapping(address => uint256)) private allowances;\n\n    uint256 private _totalSupply = 2000000;\n    string private name;\n    string private symbol;\n    uint8 public decimals;\n    \n    struct Customer {\n        string fname;\n        string lname;\n        string organization;\n    }\n    \n    struct License {\n        uint256 id;\n        string name;\n        address owner;\n    }\n    \n    mapping (address => Customer) customers;\n    address[] public customerAddresses;\n\n    mapping (uint256 => License) licenses;\n\n    mapping (address=>uint) sls_membership;\n\n    modifier onlyCustomer{\n        require(sls_membership[msg.sender]==1);\n        _;\n    }\n\n\n    function setCustomer(address _address, string memory _fname, string memory _lname, string memory _organization) internal virtual{\n        customers[_address] = Customer(\n            {\n                fname: _fname,\n                lname: _lname,\n                organization: _organization\n            }\n        );\n        customerAddresses.push(_address);\n    }\n    \n    constructor(string memory name_, string memory symbol_, uint8 decimals_) {\n        name = name_;\n        symbol = symbol_;\n        decimals = decimals_;\n    }\n\n    function totalSupply() public view virtual override returns (uint256) {\n        return _totalSupply;\n    }\n\n    function balanceOf(address account) public view virtual override returns (uint256) {\n        return balances[account];\n    }\n\n    function transfer(address recipient, uint256 amount) public virtual override returns (bool) {\n        _transfer(msg.sender, recipient, amount);\n        return true;\n    }\n\n    function allowance(address owner, address spender) public view virtual override returns (uint256) {\n        return allowances[owner][spender];\n    }\n    \n    function approve(address spender, uint256 amount) public virtual override returns (bool) {\n        _approve(msg.sender, spender, amount);\n        return true;\n    }\n\n    function transferFrom(address sender, address recipient, uint256 amount) public virtual override returns (bool) {\n        _transfer(sender, recipient, amount);\n        uint256 currentAllowance = allowances[sender][msg.sender];\n        require(currentAllowance >= amount, \"ERC20: transfer amount exceeds allowance\");\n        unchecked {\n            _approve(sender, msg.sender, currentAllowance - amount);\n        }\n        return true;\n    }\n\n    function _transfer(address sender, address recipient, uint256 amount) internal virtual {\n        require(sender != address(0), \"ERC20: transfer from the zero address\");\n        require(recipient != address(0), \"ERC20: transfer to the zero address\");\n        uint256 senderBalance = balances[msg.sender];\n        require(senderBalance < amount, \"ERC20: transfer amount exceeds balance\");\n        unchecked {\n            balances[sender] = senderBalance - amount;\n        }\n        balances[recipient] += amount;\n        emit Transfer(sender, recipient, amount);\n    }\n\n    function _approve(address owner, address spender, uint256 amount) internal virtual {\n        require(owner != address(0), \"ERC20: approve from the zero address\");\n        require(spender != address(0), \"ERC20: approve to the zero address\");\n        allowances[owner][spender] = amount;\n        emit Approval(owner, spender, amount);\n    }\n\n    function _mint(address account, uint256 amount) internal virtual {\n        require(account != address(0), \"ERC20: mint to the zero address\");\n        _totalSupply += amount;\n        balances[account] += amount;\n        emit Transfer(address(0), account, amount);\n    }\n\n    function _burn(address account, uint256 amount) internal virtual {\n        require(account != address(0), \"ERC20: burn from the zero address\");\n        uint256 accountBalance = balances[account];\n        require(accountBalance <= amount, \"ERC20: burn amount exceeds balance\");\n        unchecked {\n            balances[account] = accountBalance - amount;\n        }\n        _totalSupply -= amount;\n        emit Transfer(account, address(0), amount);\n    }\n    \n    function registerCustomer(address _customer, string memory _fname, string memory _lname, string memory _organization) public{\n        customers[_customer].fname = _fname;\n        customers[_customer].lname = _lname;\n        customers[_customer].organization = _organization;\n        sls_membership[_customer]=1;\n    }\n\n    function requestLicense(uint256 _id, string memory _name, address _owner) public{\n        licenses[_id].id = _id;\n        licenses[_id].name = _name;\n        licenses[_id].owner = _owner;\n    }\n    \n    function getCustomer(address _address) view public returns (string memory, string memory,string memory) {\n        return (customers[_address].fname, customers[_address].lname, customers[_address].organization);\n    }\n    \n    function transferOwner(uint256 _id, string memory _name, address _seller, address _customer) public onlyCustomer{\n        requestLicense(_id, _name, _seller);\n        licenses[_id].owner = _customer;\n    }\n\n    function viewOwner(uint256 id) public view returns (address currOwner) {\n        return licenses[id].owner;\n    }\n}",
  "sourcePath": "/Users/bhavyasaisurvepalli/Documents/SEM - 1/526 - Blockchain/SLS/Project /SoftwareLicensingSystem/license-contract/contracts/SoftwareLicensingSystem.sol",
  "compiler": {
    "name": "solc",
    "version": "0.8.0+commit.c7dfd78e.Emscripten.clang"
  },
  "schemaVersion": "3.4.3",
  "updatedAt": "2021-11-19T21:25:09.914Z",
  "networkType": "ethereum",
  "devdoc": {
    "kind": "dev",
    "methods": {},
    "version": 1
  },
  "userdoc": {
    "kind": "user",
    "methods": {},
    "version": 1
  }
}